:020000040000fa
:080000000001040000000000f3
:020000040000fa
:0400080000020000f2
:020000040000fa
:04000c0000020000ee
:020000040000fa
:0400100000020000ea
:020000040000fa
:0400140000020000e6
:020000040000fa
:0400180000020000e2
:020000040000fa
:04001c0000020000de
:020000040000fa
:0400200000020000da
:020000040000fa
:0400240000020000d6
:020000040000fa
:0400280000020000d2
:020000040000fa
:04002c0000020000ce
:020000040000fa
:0400300000020000ca
:020000040000fa
:0400340000020000c6
:020000040000fa
:0400380000020000c2
:020000040000fa
:04003c0000020000be
:020000040000fa
:04004000c8010000f3
:020000040000fa
:0400440000020000b6
:020000040000fa
:0400480000020000b2
:020000040000fa
:04004c0000020000ae
:020000040000fa
:0400500000020000aa
:020000040000fa
:04005400e4010000c3
:020000040000fa
:0400580000020000a2
:020000040000fa
:04005c00000200009e
:020000040000fa
:04006000000200009a
:020000040000fa
:040064000002000096
:020000040000fa
:040068000002000092
:020000040000fa
:04006c00000200008e
:020000040000fa
:04007000000200008a
:020000040000fa
:040074000002000086
:020000040000fa
:040078000002000082
:020000040000fa
:04007c00000200007e
:020000040000fa
:04008000000200007a
:020000040000fa
:040084000002000076
:020000040000fa
:040088000002000072
:020000040000fa
:04008c00000200006e
:020000040000fa
:04009000000200006a
:020000040000fa
:040094000002000066
:020000040000fa
:040098000002000062
:020000040000fa
:04009c00000200005e
:020000040000fa
:0400a000000200005a
:020000040000fa
:0400a4000002000056
:020000040000fa
:0400a8000002000052
:020000040000fa
:0400ac00000200004e
:020000040000fa
:0400b000000200004a
:020000040000fa
:0400b4000002000046
:020000040000fa
:0400b8000002000042
:020000040000fa
:0400bc00000200003e
:020000040000fa
:0400c000000200003a
:020000040000fa
:0400c4000002000036
:020000040000fa
:0400c8000002000032
:020000040000fa
:0400cc00000200002e
:020000040000fa
:0400d000000200002a
:020000040000fa
:0400d4000002000026
:020000040000fa
:0400d8000002000022
:020000040000fa
:0401080000020000f1
:020000040000fa
:04010c0000020000ed
:020000040000fa
:0401100000020000e9
:020000040000fa
:0401140000020000e5
:020000040000fa
:0401180000020000e1
:020000040000fa
:04011c0000020000dd
:020000040000fa
:0401200000020000d9
:020000040000fa
:0401240000020000d5
:020000040000fa
:0401280000020000d1
:020000040000fa
:04012c0000020000cd
:020000040000fa
:0401300000020000c9
:020000040000fa
:0401340000020000c5
:020000040000fa
:0401380000020000c1
:020000040000fa
:04013c0000020000bd
:020000040000fa
:04014000c8010000f2
:020000040000fa
:0401440000020000b5
:020000040000fa
:0401480000020000b1
:020000040000fa
:04014c0000020000ad
:020000040000fa
:0401500000020000a9
:020000040000fa
:04015400e4010000c2
:020000040000fa
:0401580000020000a1
:020000040000fa
:04015c00000200009d
:020000040000fa
:040160000002000099
:020000040000fa
:040164000002000095
:020000040000fa
:040168000002000091
:020000040000fa
:04016c00000200008d
:020000040000fa
:040170000002000089
:020000040000fa
:040174000002000085
:020000040000fa
:040178000002000081
:020000040000fa
:04017c00000200007d
:020000040000fa
:040180000002000079
:020000040000fa
:040184000002000075
:020000040000fa
:040188000002000071
:020000040000fa
:04018c00000200006d
:020000040000fa
:040190000002000069
:020000040000fa
:040194000002000065
:020000040000fa
:040198000002000061
:020000040000fa
:04019c00000200005d
:020000040000fa
:0401a0000002000059
:020000040000fa
:0401a4000002000055
:020000040000fa
:0401a8000002000051
:020000040000fa
:0401ac00000200004d
:020000040000fa
:0401b0000002000049
:020000040000fa
:0401b4000002000045
:020000040000fa
:0401b8000002000041
:020000040000fa
:0401bc00000200003d
:020000040000fa
:0401c0000002000039
:020000040000fa
:0401c4000002000035
:020000040000fa
:0401c8000002000031
:020000040000fa
:0401cc00000200002d
:020000040000fa
:0401d0000002000029
:020000040000fa
:0401d4000002000025
:020000040000fa
:0401d8000002000021
:020000040000fa
:10020000ef8020000eff20000e018800000000009b
:10021000000020000000e000020032000001200089
:100220002002880014000700770007000000e000ab
:1002300003003a0040f423000100200002003700d0
:100240000000200001002000810f7000010032003a
:1002500014000700000020000000e000020032004f
:100260000000020000000000de3d0200000000006f
:100270000040da000000fe004440a900001b2300fb
:100280000000e0000300320000002000a001880010
:100290004440a800000006008a1f78008b1f7800e9
:1002a0000000060091018800800478000000eb0047
:1002b0001a003700e284440032a0b4009905ba0065
:1002c000e284440032a0b4009906ba00e2844400fb
:1002d00032a0b4000006eb00476fde00fd07b2005d
:1002e000636ce10003003a00ebff07000000eb0045
:1002f0000a003700606ce10004003a00005deb008a
:100300008b05e900fdff3e00040037006168e10055
:10031000010032000086eb000b00070019c7ba008d
:100320001905ba000e04e00003003a000a00e000dc
:10033000e0ff3a0000000600fe07b2009e018800c0
:100340008a047800f5ff3700395dba008b05e900b3
:100350000c003200295dba008b05e900080032006c
:100360000c00e00003003a00e284440032a0b40034
:10037000f5ff370019ddba008b05e900faff3a00f6
:100380008904e800e184440032a0b40000000600c3
:10039000801f78003400f80000002000a0018800d1
:1003a0000000fa000621ef00304080000000e80065
:1003b0003040880084c0a9000080fa003400f900b1
:1003c0004f00780000400600801f78003400f800dd
:1003d00000002000a00188000000fa000014800046
:1003e0001040880010148000204088008560a9001b
:1003f0000080fa003400f9004f0078000040060049
:100400000040da000000fe0000000500889fbe00ea
:100410008a9fbe008c1f7800970007009e00330063
:1004200003866c006450e1002e0032006420e1007d
:10043000330032006150e1002f0032006120e10002
:100440003100320085855500eb07b000090020001f
:1004500008042000050037000804440089844c008b
:100460000a0031000603430087834b00000153005c
:1004700081815b00f8ff33000203be000800a0008a
:100480000804440089844c00f6ff3900c639dd00b9
:100490008301730001003200130020008904d100a1
:1004a0000884d3000998a300050032000800a700c3
:1004b0000300a0008904d1000884d3008b05e80064
:1004c0008904d1000884d3000001eb000281d2002e
:1004d0002e00070001f0a1000cf0a70001f0a00021
:1004e000760037006420e100780032000801be0089
:1004f0000200be00f7ff37006120e1007300320008
:100500006000b800f3ff37000000200001f827006a
:10051000f0ff37000001be00420007000470a70092
:1005200003f0a10003f8a30013003a006509b1002d
:1005300010003200090035006928e1000200350092
:1005400001002800000005000000400081804800f4
:100550008502e900fcff3a0000000600f88f420027
:10056000050035008100d1000080d3008502e8003d
:10057000fcff3a00000006008000eb0000000500d0
:100580004f89de008201780053003700810020008f
:10059000618055000b003d000b00200061fe2f0024
:1005a0000100e1001d0034008281710061016400de
:1005b0008904d1000884d3000000e800faff3a0063
:1005c0007100200061006400030070000200600000
:1005d0000900320061044400e0844c000988a50051
:1005e000050032008b05e8006808e10002003a00cf
:1005f0008904d1000884d300f20f20000258e100e2
:1006000005003d00c75ddd00f907b2008980750077
:1006100008007800000006000bf827008b00780027
:1006200000000500c70ade00f107b200f50fb200b6
:1006300008003200e1cf4200020032000170a00049
:1006400024000500810f700001003200040805003d
:1006500044000500810f700002003a0014000500fc
:100660008502e9000000400081c04800fcff3b001b
:100670000170a000240005000004be00e9ff07008f
:100680000003be000405be000200be00e5ff070037
:10069000844f7500000006000200be006450e100b7
:1006a000050036006420e100020036000968a3005e
:1006b00001003a000800be000160a0004f0678006b
:1006c0004f05be004f04be0000000600f0ff2f00e3
:1006d000f1ff2700f9ff3700881f78000304780036
:1006e0000300e00007003d0060001000e0801800fb
:1006f00060011900e081190002003b0001f02d00ab
:10070000030037000400070008f0a70001f0a00074
:100710004f04780000000600889fbe008a9fbe003c
:100720000082700004027100048271002600320011
:100730000004be000200be006011b8006b0920007a
:10074000950220000182cf000a0039000541b10066
:100750000082cf00070039000541b1000982cf00b7
:10076000040039000541b1000882cf0001003900c2
:100770000541b10005425200120032000a003b0060
:1007800082817100610164008100d1000080d3008a
:100790008984d3000884d3008b05e8000442e80074
:1007a000f7ff3a00070037000804440089844c0032
:1007b00000004800818048008b05e9000442e90000
:1007c000f9ff3a0071ff07004f05be004f04be005d
:0407d000000006001f
:020000040000fa
:1007d4000000000000000000000000000000000015
:1007e4000000000000000000000000000000000005
:1007f40000000000000000000000000000000000f5
:1008040000000000000000000000000000000000e4
:1008140000000000000000000000000000000000d4
:1008240000000000000000000000000000000000c4
:1008340000000000000000000000000000000000b4
:1008440000000000000000000000000000000000a4
:100854000000000000000000000000000000000094
:100864000000000000000000000000000000000084
:100874000000000000000000000000000000000074
:100884000000000000000000000000000000000064
:100894000000000000000000000000000000000054
:1008a4000000000000000000000000000000000044
:1008b4000000000000000000000000000000000034
:1008c4000000000000000000000000000000000024
:1008d4000000000000000000000000000000000014
:1008e4000000000000000000ffff0000ffff000008
:1008f400ff1f00001f1f00001f1f00001f1f00001c
:100904001f1f00001f1f00001f1f00001f1f0000eb
:100914001f1f00001f1f00001f1f00001f1f0000db
:100924001f1f00001f1f00001f1f00001f1f0000cb
:100934001f1f00001f1f00001f1f00001f1f0000bb
:100944001f1f00001f1f00001f1f00001f1f0000ab
:100954001f1f00001f1f00001f1f00001f1f00009b
:100964001f1f00001f1f00001f1f00001f1f00008b
:100974001f1f00001f1f00001f1f00001f1f00007b
:100984001f1f00001f1f00001f1f00001f1f00006b
:100994001f1f00001f1f00001f1f00001f1f00005b
:1009a4001fff0000ffff0000ffff00000000000029
:1009b4000000000000000000000000000000000033
:1009c4000000000000000000000000000000000023
:1009d4000000000000000000000000000000000013
:1009e4000000000000000000ffff0000ffff000007
:1009f400ff000000000000000000000000000000f4
:100a04000000000000000000c020000020c0000022
:100a14000000000000000000e000000000000000f2
:100a240080400000200000002020000020e00000a2
:100a3400202000002000000000e000000000000072
:100a440060800000000000000000000000000000c2
:100a54008060000000e000000000000000e00000f2
:100a64002020000020200000408000000000000042
:100a740000000000c020000020c0000000000000b2
:100a84000000000000000000e00000000000000082
:100a94000000000000000000000000000000000052
:100aa40000ff0000ffff0000ffff00000000000047
:100ab4000000000000000000000000000000000032
:100ac4000000000000000000000000000000000022
:100ad4000000000000000000000000000000000012
:100ae4000000000000000000ffff0000ffff000006
:100af400ff000000000000000000000000000000f3
:100b040000c0000038160000111000001011000091
:100b140016380000c0000000ff0400000a110000a5
:100b240020400000800000000000000000ff0000e2
:100b3400000000000000000000ff000000000000b2
:100b4400000100000e300000c0c00000300e0000a4
:100b54000100000000ff00000000000000ff000092
:100b640004040000040c000032c1000000c00000b6
:100b74003816000011100000101100001638000093
:100b8400c0800000808000007f00000000000000a2
:100b94000000000000000000000000000000000051
:100ba40000ff0000ffff0000ffff00000000000046
:100bb4000000000000000000000000000000000031
:100bc4000000000000000000000000000000000021
:100bd4000000000000000000000000000000000011
:100be4000000000000000000ffff0000ffff000005
:100bf400ff000000000000000000000000000000f2
:100c040000000000000000000000000000000000e0
:100c140000000000000000000000000000000000d0
:100c240000000000000000000000000000000000c0
:100c340000000000000000000000000000000000b0
:100c440000000000000000000000000000000000a0
:100c54000000000000000000000000000000000090
:100c64000000000000000000000000000000000080
:100c74000000000000000000000000000000000070
:100c84000000000000000000000000000000000060
:100c94000000000000000000000000000000000050
:100ca40000ff0000ffff0000ffff00000000000045
:100cb4000000000000000000000000000000000030
:100cc4000000000000000000000000000000000020
:100cd4000000000000000000000000000000000010
:100ce4000000000000000000ffff0000ffff000004
:100cf400fff80000f8f80000f8f80000f8f8000029
:100d0400f8f80000f8f80000f8f80000f8f800001f
:100d1400f8f80000f8f80000f8f80000f8f800000f
:100d2400f8f80000f8f80000f8f80000f8f80000ff
:100d3400f8f80000f8f80000f8f80000f8f80000ef
:100d4400f8f80000f8f80000f8f80000f8f80000df
:100d5400f8f80000f8f80000f8f80000f8f80000cf
:100d6400f8f80000f8f80000f8f80000f8f80000bf
:100d7400f8f80000f8f80000f8f80000f8f80000af
:100d8400f8f80000f8f80000f8f80000f8f800009f
:100d9400f8f80000f8f80000f8f80000f8f800008f
:100da400f8ff0000ffff0000ffff0000000000004c
:100db400000000000000000000000000000000002f
:100dc400000000000000000000000000000000001f
:100dd400000000000000000000000000000000000f
:100de40000000000000000000000000000000000ff
:101124000000000000600000707800003c3c0000fb
:101134001e1e00000e0f00000f070000070700002e
:101144000707000007070000070f00000e1e00003d
:101154001c7c0000f8f00000c0000000000000004b
:10116400000000000000000000000000000000007b
:10117400000000000000000000000000000000006b
:10118400000000000000000000000000000000005b
:10119400000000000000000000000000000000004b
:1011a400000000000000000000000000000000003b
:1011b400000000000000000000000000000000002b
:1011c400000000000000000000000000000000001b
:1011d400000000000000000000000000000000000b
:1011e40000000000000000000000000000000000fb
:1011f40000000000000000000000000000000000eb
:1012040000000000000000000000000000000000da
:1012140000000000000000000000000000000000ca
:1012240000000000000000000000000000000000ba
:1012340000000000000000000000000000000000aa
:101244008080000080800000c0c00000c0e000007a
:10125400f0f000007f7f00003f000000000000006d
:10126400000000000000000000000000000000007a
:10127400000000000000000000000000000000006a
:10128400000000000000000000000000000000005a
:10129400000000000000000000000000000000004a
:1012a400000000000000000000000000000000003a
:1012b400000000000000000000000000000000002a
:1012c400000000000000000000000000000000001a
:1012d400000000000000000000000000000000000a
:1012e40000000000000000000000000000000000fa
:1012f40000000000000000000000000000000000ea
:1013040000000000000000000000000000000000d9
:1013140000000000000000000000000000000000c9
:1013240000000000000000000000000000000000b9
:10133400000200000707000007070000070700007d
:1013440007070000070f00000f0f00000f1f000029
:101354001c1c00003c780000f0e00000c00000000d
:101364000000000000000000000000000000000079
:101374000000000000000000000000000000000069
:101384000000000000000000000000000000000059
:101394000000000000000000000000000000000049
:1013a4000000000000000000000000000000000039
:1013b4000000000000000000000000000000000029
:1013c4000000000000000000000000000000000019
:1013d4000000000000000000000000000000000009
:1013e40000000000000000000000000000000000f9
:1013f40000000000000000000000000000000000e9
:1014040000000000000000000000000000000000d8
:1014140000000000000000000000000000000000c8
:1014240000000000000000000000000000000000b8
:1014340000000000000000000000000000000000a8
:101444000000000000000000000000000000000098
:10145400000000000000000001070000ffff000082
:10146400fc0000000000000000000000000000007c
:101474000000000000000000000000000000000068
:101484000000000000000000000000000000000058
:101494000000000000000000000000000000000048
:1014a4000000000000000000000000000000000038
:1014b4000000000000000000000000000000000028
:1014c4000000000000000000000000000000000018
:1014d4000000000000000000000000000000000008
:1014e40000000000000000000000000000000000f8
:1014f40000000000000000000000000000000000e8
:1015040000000000000000000000000000000000d7
:1015140000000000000000000000000000000000c7
:10152400000000000000000000000000183c000063
:1015340078f00000e0e00000c0c00000c0c000007f
:101544008080000080800000808000008080000097
:10155400c0c00000c0e00000f0fc00007f3f0000bd
:101564000f00000000000000000000000000000068
:101574000000000000000000000000000000000067
:101584000000000000000000000000000000000057
:101594000000000000000000000000000000000047
:1015a4000000000000000000000000000000000037
:1015b4000000000000000000000000000000000027
:1015c4000000000000000000000000000000000017
:1015d4000000000000000000000000000000000007
:1015e40000000000000000000000000000000000f7
:1015f40000000000000000000000000000000000e7
:1016040000000000000000000000000000000000d6
:1016140000000000000000000000000000000000c6
:1016240000000000000000000000000000000000b6
:10163400000000000001000001010000010300009f
:10164400030300000303000003030000030300007e
:10165400030300000101000001000000000000007d
:101664000000000000000000000000000000000076
:101674000000000000000000000000000000000066
:101684000000000000000000000000000000000056
:101694000000000000000000000000000000000046
:1019340000800000c0e00000f0f80000fc7c000023
:101944003e1e00001e0e00000e0e00001e1e0000b3
:101954003e7c0000fcf80000f000000000000000e5
:101964000000000000000000000000000000000073
:101974000000000000000000000000000000000063
:101984000000000000000000000000000000000053
:101994000000000000000000000000000000000043
:1019a4000000000000000000000000000000000033
:1019b4000000000000000000000000000000000023
:1019c4000000000000000000000000000000000013
:1019d4000000000000000000000000000000000003
:1019e40000000000000000000000000000000000f3
:1019f40000000000000000000000000000000000e3
:101a040000000000000000000000000000000000d2
:101a140000000000000000000000000000000000c2
:101a240000000000000000000000000000000000b2
:101a34000007000007070000030100000000000089
:101a44000000000000000000000000000000000092
:101a540080f00000ffff00007f0000000000000095
:101a64000000000000000000000000000000000072
:101a74000000000000000000000000000000000062
:101a84000000000000000000000000000000000052
:101a94000000000000000000000000000000000042
:101aa4000000000000000000000000000000000032
:101ab4000000000000000000000000000000000022
:101ac4000000000000000000000000000000000012
:101ad4000000000000000000000000000000000002
:101ae40000000000000000000000000000000000f2
:101af40000000000000000000000000000000000e2
:101b040000000000000000000000000000000000d1
:101b140000000000000000000000000000000000c1
:101b240000000000000000000000000000000000b1
:101b340000000000000000000000000000000000a1
:101b44000000000000000000c0e00000f8fe0000fb
:101b5400ff3f00000f030000000000000000000031
:101b64000000000000000000000000000000000071
:101b74000000000000000000000000000000000061
:101b84000000000000000000000000000000000051
:101b94000000000000000000000000000000000041
:101ba4000000000000000000000000000000000031
:101bb4000000000000000000000000000000000021
:101bc4000000000000000000000000000000000011
:101bd4000000000000000000000000000000000001
:101be40000000000000000000000000000000000f1
:101bf40000000000000000000000000000000000e1
:101c040000000000000000000000000000000000d0
:101c140000000000000000000000000000000000c0
:101c240000000000000000000000000000000000b0
:101c3400000000000000000080c00000e0f0000090
:101c4400f8fc00007e3f00001f0f000007010000a9
:101c54000000000000000000000000000000000080
:101c64000000000000000000000000000000000070
:101c74000000000000000000000000000000000060
:101c84000000000000000000000000000000000050
:101c94000000000000000000000000000000000040
:101ca4000000000000000000000000000000000030
:101cb4000000000000000000000000000000000020
:101cc4000000000000000000000000000000000010
:101cd4000000000000000000000000000000000000
:101ce40000000000000000000000000000000000f0
:101cf40000000000000000000000000000000000e0
:101d040000000000000000000000000000000000cf
:101d140000000000000000000000000000000000bf
:101d2400000000000000000000f00000f8f80000cf
:101d3400fcfe0000feff0000efef0000e7e3000000
:101d4400e1e00000e0e00000e0c00000c0c00000ee
:101d5400c0c00000c0c00000c0c00000c0c000007f
:101d6400c0000000000000000000000000000000af
:101d7400000000000000000000000000000000005f
:101d8400000000000000000000000000000000004f
:101d9400000000000000000000000000000000003f
:101da400000000000000000000000000000000002f
:101db400000000000000000000000000000000001f
:101dc400000000000000000000000000000000000f
:101dd40000000000000000000000000000000000ff
:101de40000000000000000000000000000000000ef
:101df40000000000000000000000000000000000df
:101e040000000000000000000000000000000000ce
:101e140000000000000000000000000000000000be
:101e240000000000000000000000000000000000ae
:101e3400000000000000000000000000000000009e
:101e44000000000001010000010100000101000088
:101e54000101000001010000010100000101000076
:101e6400010000000000000000000000000000006d
:101e7400000000000000000000000000000000005e
:101e8400000000000000000000000000000000004e
:101e9400000000000000000000000000000000003e
:101ea400000000000000000000000000000000002e
:10214400000000000000000000000000008000000b
:10215400e0f80000feff0000ffff000000000000a8
:10216400000000000000000000000000000000006b
:10217400000000000000000000000000000000005b
:10218400000000000000000000000000000000004b
:10219400000000000000000000000000000000003b
:1021a400000000000000000000000000000000002b
:1021b400000000000000000000000000000000001b
:1021c400000000000000000000000000000000000b
:1021d40000000000000000000000000000000000fb
:1021e40000000000000000000000000000000000eb
:1021f40000000000000000000000000000000000db
:1022040000000000000000000000000000000000ca
:1022140000000000000000000000000000000000ba
:1022240000000000000000000000000000000000aa
:10223400000000000000000000000000000000009a
:102244000000000000c00000e0f80000feff0000f5
:102254003f0f000003ff0000ffff0000000000002c
:10226400000000000000000000000000000000006a
:10227400000000000000000000000000000000005a
:10228400000000000000000000000000000000004a
:10229400000000000000000000000000000000003a
:1022a400000000000000000000000000000000002a
:1022b400000000000000000000000000000000001a
:1022c400000000000000000000000000000000000a
:1022d40000000000000000000000000000000000fa
:1022e40000000000000000000000000000000000ea
:1022f40000000000000000000000000000000000da
:1023040000000000000000000000000000000000c9
:1023140000000000000000000000000000000000b9
:1023240000000000000000000000000000000000a9
:1023340000000000000000000000000000f00000a9
:10234400f8fe00007f3f00000f07000001000000be
:102354000000000000ff0000ffff0000000000007c
:102364000000000000000000000000000000000069
:102374000000000000000000000000000000000059
:102384000000000000000000000000000000000049
:102394000000000000000000000000000000000039
:1023a4000000000000000000000000000000000029
:1023b4000000000000000000000000000000000019
:1023c4000000000000000000000000000000000009
:1023d40000000000000000000000000000000000f9
:1023e40000000000000000000000000000000000e9
:1023f40000000000000000000000000000000000d9
:1024040000000000000000000000000000000000c8
:1024140000000000000000000000000000000000b8
:1024240000000000000000000000000000000000a8
:102434000000000000000000000000000000000098
:102444000000000000000000000000000000000088
:102454000000000000ff0000ffff0000000000007b
:102464000000000000000000000000000000000068
:102474000000000000000000000000000000000058
:102484000000000000000000000000000000000048
:102494000000000000000000000000000000000038
:1024a4000000000000000000000000000000000028
:1024b4000000000000000000000000000000000018
:1024c4000000000000000000000000000000000008
:1024d40000000000000000000000000000000000f8
:1024e40000000000000000000000000000000000e8
:1024f40000000000000000000000000000000000d8
:1025040000000000000000000000000000000000c7
:1025140000000000000000000000000000000000b7
:1025240000000000000000000000000000000000a7
:102534000000000000000000000000000000000097
:102544000000000000000000000000000000000087
:102554000000000000ff0000ffff0000000000007a
:102564000000000000000000000000000000000067
:102574000000000000000000000000000000000057
:102584000000000000000000000000000000000047
:102594000000000000000000000000000000000037
:1025a4000000000000000000000000000000000027
:1025b4000000000000000000000000000000000017
:1025c4000000000000000000000000000000000007
:1025d40000000000000000000000000000000000f7
:1025e40000000000000000000000000000000000e7
:1025f40000000000000000000000000000000000d7
:1026040000000000000000000000000000000000c6
:1026140000000000000000000000000000000000b6
:1026240000000000000000000000000000000000a6
:102634000000000000000000000000000000000096
:102644000000000000000000000000000000000086
:1026540000000000001f00001f1f00000000000019
:102664000000000000000000000000000000000066
:102674000000000000000000000000000000000056
:102684000000000000000000000000000000000046
:102694000000000000000000000000000000000036
:1028c400c000000000000000000000000000000044
:1028d40000000000000000000000000000000000f4
:1028e400ffff0000ffff00000303000003030000dc
:1028f40003030000030300000303000003030000bc
:1029040003030000030300000303000003030000ab
:10291400030300000303000003030000038300001b
:10292400c3c30000830300000303000003c30000cb
:10293400c3030000030300000303000003030000bb
:1029440003030000c3c3000083030000030300006b
:1029540003030000c3c30000c3430000c3c300005b
:102964008303000003c30000c3030000030300004b
:102974000303000083c30000c3030000030300003b
:10298400030300000303000003030000030300002b
:10299400030300000303000003030000030300001b
:1029a400030300000303000003030000030300000b
:1029b400030300000303000003ff0000ffff000007
:1029c400ff00000000000000000000000000000004
:1029d40000000000000000000000000000000000f3
:1029e400ffff0000ffff00000000000000000000e7
:1029f40000000000000000000000000000000000d3
:102a040000000000000000000000000000000000c2
:102a1400000000000000000080c00000fa6f000009
:102a2400222700002ef80000a000000000df0000b4
:102a3400ff000000000000000000000000c00000d3
:102a4400f83f00002b6100002e7c0000e000000035
:102a540000000000ffff00003010000038ef00000d
:102a64008e000000aaff0000021f0000f8c0000052
:102a7400a07c00002e030000bffc0000000000004a
:102a84000000000000000000000000000000000042
:102a94000000000000000000000000000000000032
:102aa4000000000000000000000000000000000022
:102ab400000000000000000000ff0000ffff000015
:102ac400ff00000000000000000000000000000003
:102ad40000000000000000000000000000000000f2
:102ae400ffff0000ffff00000000000000000000e6
:102af40000000000000000000000000000000000d2
:102b040000000000000000000000000000000000c1
:102b140000000000000000000203000000000000ac
:102b2400000000000001000003000000000300009a
:102b3400030300000203000002020000020300007d
:102b44000200000000000000000000000303000079
:102b5400000000000303000000000000000100006a
:102b64000200000002030000000000000003000057
:102b74000300000000000000020300000000000049
:102b84000000000000000000000000000000000041
:102b94000000000000000000000000000000000031
:102ba4000000000000000000000000000000000021
:102bb400000000000000000000ff0000ffff000014
:102bc400ff00000000000000000000000000000002
:102bd40000000000000000000000000000000000f1
:102be400ffff0000ffff00000000000000000000e5
:102bf40000000000000000000000000000000000d1
:102c04000000000000c00000e83c00002cf00000c0
:102c1400a00000000000000000fc0000a8c00000ac
:102c2400e0300000280c00000c0400000c0400003c
:102c3400acfc00000c0400000c040000a8fc000024
:102c4400000400002cf00000a00000000080000040
:102c5400e87c000008000000fcfc0000000000000c
:102c6400fcfc00000c0400008cfc0000e8000000e8
:102c740000000000a0f000002c3c0000e8c00000b0
:102c84000000000000d40000fc1c0000e8c00000ac
:102c940080000000a8fc000000000000000000000c
:102ca4000000000000000000000000000000000020
:102cb400000000000000000000ff0000ffff000013
:102cc400ff00000000000000000000000000000001
:102cd40000000000000000000000000000000000f0
:102ce400ffff0000ffff00000000000000000000e4
:102cf40000000000000000000000000000000000d0
:102d0400000000003a0f0000020600000207000065
:102d14000f3c000028000000003f00002b010000d1
:102d2400030700000e38000020000000000000002f
:102d34002a3f000000000000000000002a3f0000bd
:102d440000000000000100000f3c00003a0f0000ea
:102d540002000000000000003f3f000000000000ef
:102d64003f3f000003010000031f00002800000093
:102d7400283c00000b07000002060000021f0000b0
:102d84003a000000001700003f00000000010000ae
:102d9400021c00003a3f0000000000000000000098
:102da400000000000000000000000000000000001f
:102db400000000000000000000ff0000ffff000012
:102dc400ff00000000000000000000000000000000
:102dd40000000000000000000000000000000000ef
:102de400ffff0000ffff0000e0e00000e0e0000063
:102df400e0e00000e0e00000e0e00000e0e00000cf
:102e0400e0e00000e0e00000e0e00000e0e00000be
:102e1400e0e00000e0e00000e0e00000e0e00000ae
:102e2400e0e00000e0e00000e0e00000e0e000009e
:102e3400e0e00000e0e00000e0e00000e0e000008e
:102e4400e0e00000e0e00000e0e00000e0e000007e
:102e5400e0e00000e0e00000e0e00000e0e000006e
:102e6400e0e00000e0e00000e0e00000e0e000005e
:102e7400e0e00000e0e00000e0e00000e0e000004e
:102e8400e0e00000e0e00000e0e00000e0e000003e
:102e9400e0e00000e0e00000e0e00000e0e000002e
:102ea400e0e00000e0e00000e0e00000e0e000001e
:102eb400e0e00000e0e00000e0ff0000ffff0000b1
:102ec400ff000000000000000000000000000000ff
:102ed40000000000000000000000000000000000ee
:102ee40001010000010100000101000001010000d6
:102ef40001010000010100000101000001010000c6
:102f040001010000010100000101000001010000b5
:102f140001010000010100000101000001010000a5
:102f24000101000001010000010100000101000095
:102f34000101000001010000010100000101000085
:102f44000101000001010000010100000101000075
:102f54000101000001010000010100000101000065
:102f64000101000001010000010100000101000055
:102f74000101000001010000010100000101000045
:102f84000101000001010000010100000101000035
:102f94000101000001010000010100000101000025
:102fa4000101000001010000010100000101000015
:102fb4000101000001010000010100000101000005
:102fc40001000000000000000000000000000000fc
:102fd40000000000000000000000000000000000ed
:102fe400c0c00000c0c00000c0c00000c0c00000dd
:102ff400c0c00000c0c00000c0c00000c0c00000cd
:10300400c0c00000c0c00000c0c00000c0c00000bc
:10301400c0c00000c0c00000c0c00000c0c00000ac
:10302400c0c00000c0c00000c0c00000c0c000009c
:10303400c0c00000c0c00000c0c00000c0c000008c
:10304400c0c00000c0c00000c0c00000c0c000007c
:10305400c0c00000c0c00000c0c00000c0c000006c
:10306400c0c00000c0c00000c0c00000c0c000005c
:10307400c0c00000c0c00000c0c00000c0c000004c
:10308400c0c00000c0c00000c0c00000c0c000003c
:10309400c0c00000c0c00000c0c00000c0c000002c
:1030a400c0c00000c0c00000c0c00000c0c000001c
:1030b400c0c00000c0c00000c0c00000c0c000000c
:1030c400c00000000000000000000000000000003c
:1030d40000000000000000000000000000000000ec
:1030e400ffff0000ffff00000303000003030000d4
:1030f40003c30000c3430000c343000083830000f4
:103104008303000003030000c3c30000c3430000a3
:10311400c343000083430000c3430000c3c3000053
:10312400c3430000c343000003c30000c3430000c3
:10313400c3430000c343000003c30000c3030000f3
:103144000303000083c3000083430000c343000063
:10315400c3c30000c3430000c343000003030000d3
:1031640083c30000c343000083c300008303000043
:1031740003430000c3030000030300000303000033
:1031840083c300000303000003030000c3c3000063
:10319400830300000303000003c30000c383000093
:1031a4000303000003030000c34300000303000003
:1031b400030300000303000003ff0000ffff0000ff
:1031c400ff000000000000000000000000000000fc
:1031d40000000000000000000000000000000000eb
:1031e400ffff0000ffff00000000000000000000df
:1031f40000ff0000aa0000000000000000810000a1
:10320400ef7c000000000000ffff00001810000029
:10321400181000000000000000000000aaff0000d9
:10322400000000000000000000ff0000ba100000d1
:10323400181000001800000000ff0000ff18000034
:103244003e770000e3c000008000000000000000a2
:1032540000ff0000aa00000000000000baff000008
:10326400820000000000000000000000a3ff000036
:103274002a0000000b5f0000e8800000e07c0000f2
:103284000e01000080c00000ba3f00002267000069
:103294002efc0000a000000000ff0000ab070000af
:1032a4000e3c0000e8c00000bf5d0000000000000c
:1032b400000000000000000000ff0000ffff00000d
:1032c400ff000000000000000000000000000000fb
:1032d40000000000000000000000000000000000ea
:1032e400ffff0000ffff00000000000000000000de
:1032f40000030000030300000203000003010000b8
:1033040000000000000000000303000002030000ae
:10331400020300000200000000000000020300009d
:103324000000000000000000000300000303000090
:10333400020300000202000000030000030000007a
:103344000000000000030000020000000000000074
:103354000003000002000000000000000001000063
:10336400030100000203000002010000010000004c
:103374000000000000000000020300000300000041
:103384000000000002030000000000000000000034
:10339400000100000302000000030000020000001e
:1033a4000000000000010000030100000000000014
:1033b400000000000000000000ff0000ffff00000c
:1033c400ff000000000000000000000000000000fa
:1033d40000000000000000000000000000000000e9
:1033e400ffff0000ffff00000000000000000000dd
:1033f40000000000000000000000000000000000c9
:1034040000000000000000000000000000000000b8
:1034140000000000000000000000000000000000a8
:103424000000000000000000000000000000000098
:1034340000000000f8dc00000c0400000c0c00008c
:1034440008180000e8c0000000fc0000fc000000b8
:1034540000540000fc5c0000e88000000000000054
:1034640080f000002cfc0000a80000000000000018
:103474000000000000000000000000000000000048
:103484000000000000000000000000000000000038
:103494000000000000000000000000000000000028
:1034a4000000000000000000000000000000000018
:1034b400000000000000000000ff0000ffff00000b
:1034c400ff000000000000000000000000000000f9
:1034d40000000000000000000000000000000000e8
:1034e400ffff0000ffff00000000000000000000dc
:1034f40000000000000000000000000000000000c8
:1035040000000000000000000000000000000000b7
:1035140000000000000000000000000000000000a7
:103524000000000000000000000000000000000097
:10353400000000003f3f0000203000002010000089
:10354400381c00000f010000003f00003f00000095
:10355400003d00002b000000020f00003a1c000098
:103564000b000000003f00002a00000000000000e3
:103574000000000000000000000000000000000047
:103584000000000000000000000000000000000037
:103594000000000000000000000000000000000027
:1035a4000000000000000000000000000000000017
:1035b400000000000000000000ff0000ffff00000a
:1035c400ff000000000000000000000000000000f8
:1035d40000000000000000000000000000000000e7
:1035e400ffff0000ffff0000e0e00000e0e000005b
:1035f400e0e00000e0e00000e0e00000e0e00000c7
:10360400e0e00000e0e00000e0e00000e0e00000b6
:10361400e0e00000e0e00000e0e00000e0e00000a6
:10362400e0e00000e0e00000e0e00000e0e0000096
:10363400e0e00000e0e00000e0e00000e0e0000086
:10364400e0e00000e0e00000e0e00000e0e0000076
:10365400e0e00000e0e00000e0e00000e0e0000066
:10366400e0e00000e0e00000e0e00000e0e0000056
:10367400e0e00000e0e00000e0e00000e0e0000046
:10368400e0e00000e0e00000e0e00000e0e0000036
:10369400e0e00000e0e00000e0e00000e0e0000026
:1036a400e0e00000e0e00000e0e00000e0e0000016
:1036b400e0e00000e0e00000e0ff0000ffff0000a9
:1036c400ff000000000000000000000000000000f7
:1036d40000000000000000000000000000000000e6
:1036e40001010000010100000101000001010000ce
:1036f40001010000010100000101000001010000be
:1037040001010000010100000101000001010000ad
:10371400010100000101000001010000010100009d
:10372400010100000101000001010000010100008d
:10373400010100000101000001010000010100007d
:10374400010100000101000001010000010100006d
:10375400010100000101000001010000010100005d
:10376400010100000101000001010000010100004d
:10377400010100000101000001010000010100003d
:10378400010100000101000001010000010100002d
:10379400010100000101000001010000010100001d
:1037a400010100000101000001010000010100000d
:1037b40001010000010100000101000001010000fd
:1037c40001000000000000000000000000000000f4
:1037d40000000000000000000000000000000000e5
:1037e400c0c00000c0c00000c0c00000c0c00000d5
:1037f400c0c00000c0c00000c0c00000c0c00000c5
:10380400c0c00000c0c00000c0c00000c0c00000b4
:10381400c0c00000c0c00000c0c00000c0c00000a4
:10382400c0c00000c0c00000c0c00000c0c0000094
:10383400c0c00000c0c00000c0c00000c0c0000084
:10384400c0c00000c0c00000c0c00000c0c0000074
:10385400c0c00000c0c00000c0c00000c0c0000064
:10386400c0c00000c0c00000c0c00000c0c0000054
:10387400c0c00000c0c00000c0c00000c0c0000044
:10388400c0c00000c0c00000c0c00000c0c0000034
:10389400c0c00000c0c00000c0c00000c0c0000024
:1038a400c0c00000c0c00000c0c00000c0c0000014
:1038b400c0c00000c0c00000c0c00000c0c0000004
:1038c400c000000000000000000000000000000034
:1038d40000000000000000000000000000000000e4
:1038e400ffff0000ffff00000303000003030000cc
:1038f40003c30000c3430000c343000083830000ec
:103904008303000003030000c3c30000c34300009b
:10391400c343000083430000c3430000c3c300004b
:10392400c3430000c343000003c30000c3430000bb
:10393400c3430000c343000003c30000c3030000eb
:103944000303000083c3000083430000c34300005b
:10395400c3c30000c3430000c343000003030000cb
:1039640083c30000c343000083c30000830300003b
:1039740003430000c303000003030000030300002b
:1039840083c300000303000003030000c3c300005b
:10399400830300000303000003c30000c38300008b
:1039a4000303000003030000c343000003030000fb
:1039b400030300000303000003ff0000ffff0000f7
:1039c400ff000000000000000000000000000000f4
:1039d40000000000000000000000000000000000e3
:1039e400ffff0000ffff00000000000000000000d7
:1039f40000ff0000aa000000000000000081000099
:103a0400ef7c000000000000ffff00001810000021
:103a1400181000000000000000000000aaff0000d1
:103a2400000000000000000000ff0000ba100000c9
:103a3400181000001800000000ff0000ff1800002c
:103a44003e770000e3c0000080000000000000009a
:103a540000ff0000aa00000000000000baff000000
:103a6400820000000000000000000000a3ff00002e
:103a74002a0000000b5f0000e8800000e07c0000ea
:103a84000e01000080c00000ba3f00002267000061
:103a94002efc0000a000000000ff0000ab070000a7
:103aa4000e3c0000e8c00000bf5d00000000000004
:103ab400000000000000000000ff0000ffff000005
:103ac400ff000000000000000000000000000000f3
:103ad40000000000000000000000000000000000e2
:103ae400ffff0000ffff00000000000000000000d6
:103af40000030000030300000203000003010000b0
:103b040000000000000000000303000002030000a6
:103b14000203000002000000000000000203000095
:103b24000000000000000000000300000303000088
:103b34000203000002020000000300000300000072
:103b4400000000000003000002000000000000006c
:103b5400000300000200000000000000000100005b
:103b64000301000002030000020100000100000044
:103b74000000000000000000020300000300000039
:103b8400000000000203000000000000000000002c
:103b94000001000003020000000300000200000016
:103ba400000000000001000003010000000000000c
:103bb400000000000000000000ff0000ffff000004
:103bc400ff000000000000000000000000000000f2
:103bd40000000000000000000000000000000000e1
:103be400ffff0000ffff00000000000000000000d5
:103bf40000000000000000000000000000000000c1
:103c040000000000000000000000000000000000b0
:103c14000000000000000000a8fc00000c040000ec
:103c24008c8c0000f850000000c00000f818000060
:103c3400080400000c0c000008f00000e000000084
:103c440000fc0000fc800000e0700000380c000064
:103c540004000000a8fc00000c0400008c8c000090
:103c6400f870000000dc0000fc0400008c0400007c
:103c74008c040000080400000c040000fcdc0000bc
:103c84000c0400000c000000000000000000000014
:103c94000000000000000000000000000000000020
:103ca4000000000000000000000000000000000010
:103cb400000000000000000000ff0000ffff000003
:103cc400ff000000000000000000000000000000f1
:103cd40000000000000000000000000000000000e0
:103ce400ffff0000ffff00000000000000000000d4
:103cf40000000000000000000000000000000000c0
:103d040000000000000000000000000000000000af
:103d140000000000000000002a3f00000301000032
:103d24000301000000000000000700000e1800005e
:103d34002030000020100000381f00000b0000009d
:103d4400003f00003f010000020700000e180000c1
:103d5400200000002a3f00000301000003070000c8
:103d64003e300000001f00003f3100002121000010
:103d74002130000000000000000000003f1f000090
:103d8400000000000000000000000000000000002f
:103d9400000000000000000000000000000000001f
:103da400000000000000000000000000000000000f
:103db400000000000000000000ff0000ffff000002
:103dc400ff000000000000000000000000000000f0
:103dd40000000000000000000000000000000000df
:103de400ffff0000ffff0000e0e00000e0e0000053
:103df400e0e00000e0e00000e0e00000e0e00000bf
:103e0400e0e00000e0e00000e0e00000e0e00000ae
:103e1400e0e00000e0e00000e0e00000e0e000009e
:103e2400e0e00000e0e00000e0e00000e0e000008e
:103e3400e0e00000e0e00000e0e00000e0e000007e
:103e4400e0e00000e0e00000e0e00000e0e000006e
:103e5400e0e00000e0e00000e0e00000e0e000005e
:103e6400e0e00000e0e00000e0e00000e0e000004e
:103e7400e0e00000e0e00000e0e00000e0e000003e
:103e8400e0e00000e0e00000e0e00000e0e000002e
:103e9400e0e00000e0e00000e0e00000e0e000001e
:103ea400e0e00000e0e00000e0e00000e0e000000e
:103eb400e0e00000e0e00000e0ff0000ffff0000a1
:103ec400ff000000000000000000000000000000ef
:103ed40000000000000000000000000000000000de
:103ee40001010000010100000101000001010000c6
:103ef40001010000010100000101000001010000b6
:103f040001010000010100000101000001010000a5
:103f14000101000001010000010100000101000095
:103f24000101000001010000010100000101000085
:103f34000101000001010000010100000101000075
:103f44000101000001010000010100000101000065
:103f54000101000001010000010100000101000055
:103f64000101000001010000010100000101000045
:103f74000101000001010000010100000101000035
:103f84000101000001010000010100000101000025
:103f94000101000001010000010100000101000015
:103fa4000101000001010000010100000101000005
:103fb40001010000010100000101000001010000f5
:103fc40001000000000000000000000000000000ec
:103fd40000000000000000000000000000000000dd
:103fe400c0c00000c0c00000c0c00000c0c00000cd
:103ff400c0c00000c0c00000c0c00000c0c00000bd
:10400400c0c00000c0c00000c0c00000c0c00000ac
:10401400c0c00000c0c00000c0c00000c0c000009c
:10402400c0c00000c0c00000c0c00000c0c000008c
:10403400c0c00000c0c00000c0c00000c0c000007c
:10404400c0c00000c0c00000c000000000000000ac
:1040540000000000c0c00000c0c00000c0c00000dc
:10406400c0c00000c0c00000c0c00000c0c000004c
:10407400c0c00000c0c00000c0c00000c0c000003c
:10408400c0c00000c0c00000c0c00000c0c000002c
:10409400c0c00000c0c00000c0c00000c0c000001c
:1040a400c0c00000c0c00000c0c00000c0c000000c
:1040b400c0c00000c0c00000c0c00000c0c00000fc
:1040c40000000000000000000000000000000000ec
:1040d40000000000000000000000000000000000dc
:1040e400ffff0000ffff00000303000003030000c4
:1040f4008303000083030000030300008303000024
:104104008303000003030000030300008303000093
:104114000303000003030000830300008303000083
:104124000303000003030000030300000303000073
:1041340003030000830300000303000003030000e3
:1041440003ff0000ffff0000ff000000000000006c
:1041540000000000ffff0000ffff00000303000059
:104164000303000003030000030300000303000033
:104174000303000003030000030300000303000023
:104184000303000003030000030300000303000013
:104194000303000003030000030300000303000003
:1041a40003030000030300000303000003030000f3
:1041b4000303000003030000ffff0000ffff0000f3
:1041c40000000000000000000000000000000000eb
:1041d40000000000000000000000000000000000db
:1041e400ffff0000ffff00000000000000000000cf
:1041f400aaff0000eb00000000000000ebff00003d
:10420400aaf00000fe9f000002430000e3c3000088
:10421400e200000080f00000fedf0000affc0000c0
:10422400e0000000081e00003e330000e3e300004d
:1042340082ff0000ff0000000000000000000000fa
:1042440000ff0000ffff0000ff000000000000006e
:1042540000000000ffff0000ffff0000000000005e
:104264000e0c0000eefc00003e0c000000e000001c
:10427400febc0000e8c400000e0c0000fedc0000e0
:104284000e0c00002efc0000a0000000e87c0000e2
:10429400aef80000a80c00000e0c0000a8f000000e
:1042a400a8fc0000eecc0000ec7c0000a8fc0000a0
:1042b400aa00000000000000ffff0000ffff000054
:1042c40000000000000000000000000000000000ea
:1042d40000000000000000000000000000000000da
:1042e400ffff0000ffff00000000000000000000ce
:1042f40000030000030600000e0600000303000094
:104304000000000003070000060600000e0700007e
:10431400070400000e070000020000000001000076
:104324000f0700000a060000060400000e07000044
:10433400020700000f000000000000000000000061
:1043440000ff0000ffff0000ff000000000000006d
:1043540000000000ffff0000ffff0000000000005d
:104364000e0f00000b0c0000080c00000e0f0000e4
:10437400030100000b0f00000a0000000f070000fb
:1043840000000000000100000f0f00000b000000ff
:10439400020700000e0c0000080c00000f070000cc
:1043a4000a0f00000a0100000f0f00000a0f0000ae
:1043b4000a00000000000000ffff0000ffff0000f3
:1043c40000000000000000000000000000000000e9
:1043d40000000000000000000000000000000000d9
:1043e400ffff0000ffff000000000000e8fc0000e9
:1043f400cecc00008c0c0000a8fc0000e8000000fb
:10440400fcfc00008e8c0000fcfc000020fc000082
:10441400fecc00008e8c00008e000000fefc00002c
:10442400f8e0000080000000fefc0000a8fc000092
:10443400be00000000000000befc0000a800000058
:1044440000ff0000ffff0000ff000000000000006c
:1044540000000000ffff0000ffff0000000000005c
:10446400000000000000000000700000e880000070
:1044740000c00000f8700000f0f0000038f0000008
:10448400e000000080f00000f8f000008010000060
:1044940038300000f8f0000038100000e8f00000a8
:1044a400f080000000000000000000000000000098
:1044b4000000000000000000ffff0000ffff0000fc
:1044c40000000000000000000000000000000000e8
:1044d40000000000000000000000000000000000d8
:1044e400ffff0000ffff000000100000081800009c
:1044f400381900000f0f00000a1f00002b000000f5
:104504003f1f0000030300000f1c0000281f0000d1
:104514003f19000038190000381000003f1f000048
:10452400000100000b1f00003f1d0000020f0000ef
:104534000e180000381800000e0f000000000000e4
:1045440000ff0000ffff0000ff000000000000006b
:1045540000000000ffff0000ffff0000000000005b
:104564000000000000000000000000000b3f0000fd
:104574003e1f0000030000003f3f0000021f000038
:104584003a3000003e0f00000e0700002f3c0000f0
:10459400000000003f1f0000283f00000f0700003c
:1045a4000f3f000028000000000000000000000091
:1045b4000000000000000000ffff0000ffff0000fb
:1045c40000000000000000000000000000000000e7
:1045d40000000000000000000000000000000000d7
:1045e400ffff0000ffff0000e0e00000e0e000004b
:1045f400e0e00000e0e00000e0e00000e0e00000b7
:10460400e0e00000e0e00000e0e00000e0e00000a6
:10461400e0e00000e0e00000e0e00000e0e0000096
:10462400e0e00000e0e00000e0e00000e0e0000086
:10463400e0e00000e0e00000e0e00000e0e0000076
:10464400e0ff0000ffff0000ff000000000000008a
:1046540000000000ffff0000ffff0000e0e000009a
:10466400e0e00000e0e00000e0e00000e0e0000046
:10467400e0e00000e0e00000e0e00000e0e0000036
:10468400e0e00000e0e00000e0e00000e0e0000026
:10469400e0e00000e0e00000e0e00000e0e0000016
:1046a400e0e00000e0e00000e0e00000e0e0000006
:1046b400e0e00000e0e00000ffff0000ffff00007a
:1046c40000000000000000000000000000000000e6
:1046d40000000000000000000000000000000000d6
:1046e40001010000010100000101000001010000be
:1046f40001010000010100000101000001010000ae
:10470400010100000101000001010000010100009d
:10471400010100000101000001010000010100008d
:10472400010100000101000001010000010100007d
:10473400010100000101000001010000010100006d
:104744000101000001010000010000000000000060
:10475400000000000101000001010000010100004f
:10476400010100000101000001010000010100003d
:10477400010100000101000001010000010100002d
:10478400010100000101000001010000010100001d
:10479400010100000101000001010000010100000d
:1047a40001010000010100000101000001010000fd
:1047b40001010000010100000101000001010000ed
:1047c40000000000000000000000000000000000e5
:1047d40000000000000000000000000000000000d5
:1047e40000c00000c0c00000c0c00000c0c0000085
:1047f400c0c00000c0c00000c0c00000c0c00000b5
:10480400c0c00000c0c00000c0c00000c0c00000a4
:10481400c0c00000c0c00000c0c00000c0c0000094
:10482400c0c00000c0c00000c0c00000c0c0000084
:10483400c0c00000c0c00000c0c00000c0c0000074
:10484400c0c00000c0c00000c0c00000c0c0000064
:10485400c0c00000c0c00000c0c00000c0c0000054
:10486400c0c00000c0c00000c0c00000c0c0000044
:10487400c0c00000c0c00000c0c00000c0c0000034
:10488400c0c00000c0c00000c0c00000c0c0000024
:10489400c0c00000c0c00000c0c00000c0c0000014
:1048a400c0c00000c0c00000c0c00000c0c0000004
:1048b400c0c00000c0c00000c0c00000c0c00000f4
:1048c40000000000000000000000000000000000e4
:1048d40000000000000000000000000000000000d4
:1048e40000ff0000ffff0000ff03000003030000bf
:1048f400030300000303000003030000030300009c
:10490400030300000303000003030000030300008b
:1049140003030000030300008383000083030000fb
:1049240003030000030300008383000083030000eb
:10493400030300000303000083830000838300005b
:1049440083830000838300008303000003030000cb
:10495400030300000383000083830000830300003b
:10496400030300000303000003030000838300002b
:10497400838300008383000083030000030300009b
:10498400838300008303000003030000030300008b
:1049940003030000030300000303000003030000fb
:1049a40003030000030300000303000003030000eb
:1049b4000303000003030000ffff0000ffff0000eb
:1049c40000000000000000000000000000000000e3
:1049d40000000000000000000000000000000000d3
:1049e40000ff0000ffff0000ff00000000000000c7
:1049f40000000000000000000000000000000000b3
:104a040000000000000000000000000000000000a2
:104a14000000000000410000ffff0000aa000000a9
:104a24000000000000000000aaff0000ef000000ea
:104a340020fc0000fedf00008301000001010000f3
:104a440020310000a1f10000e2000000000000009d
:104a5400e0f80000fedf0000e34f0000effc000080
:104a6400e8c00000000000000e1f00002b39000009
:104a740038310000e1e10000e000000000410000e6
:104a8400ffff0000aa00000000000000000000007a
:104a94000000000000000000000000000000000012
:104aa4000000000000000000000000000000000002
:104ab4000000000000000000ffff0000ffff0000f6
:104ac40000000000000000000000000000000000e2
:104ad40000000000000000000000000000000000d2
:104ae40000ff0000ffff0000ff00000000000000c6
:104af40000000000000000000000000000000000b2
:104b040000000000000000000000000000000000a1
:104b14000000000000000000020300000306000083
:104b24000e0600000e060000020300000100000053
:104b34000000000003030000020700000e0600004e
:104b44000e0600000e070000070000000807000022
:104b54000f0700000000000000000000000100003a
:104b6400070700000e000000060600000e06000005
:104b74000e0600000707000002000000000100000c
:104b84000f0700000a000000000000000000000001
:104b94000000000000000000000000000000000011
:104ba4000000000000000000000000000000000001
:104bb4000000000000000000ffff0000ffff0000f5
:104bc40000000000000000000000000000000000e1
:104bd40000000000000000000000000000000000d1
:104be40000ff0000ffff0000ff00000000000000c5
:104bf40000000000000000000000000000000000b1
:104c040000000000000000000000000080e0000040
:104c1400e070000028300000383000002800000058
:104c240000000000e8f00000a0000000a0f0000078
:104c3400f83000002830000038700000e0c00000a8
:104c440080000000a8f00000f830000028300000c8
:104c54003830000028000000a0f00000e8f0000058
:104c6400e0c000008000000000000000e8f0000048
:104c7400a0000000a8f00000f80000000000000000
:104c84000000000000000000f8f00000a800000090
:104c94000000000000000000000000000000000010
:104ca4000000000000000000000000000000000000
:104cb4000000000000000000ffff0000ffff0000f4
:104cc40000000000000000000000000000000000e0
:104cd40000000000000000000000000000000000d0
:104ce40000ff0000ffff0000ff00000000000000c4
:104cf40000000000000000000000000000000000b0
:104d0400000000000000000000000000a0c100003e
:104d1400c3c70000c6c60000ee7c00007800000097
:104d240000040000ffff0000aa000000aaff00002a
:104d3400ff0600000e0600000e3f0000fbf300001b
:104d440080000000aaff0000fec60000c2c60000ea
:104d540086c60000c2c00000aaff0000ef010000e8
:104d6400020700000f1e000038f80000efff0000eb
:104d7400aa0000000a3f0000fff40000e0c00000a9
:104d840080c00000e0f00000be3f00000a00000008
:104d9400000000000000000000000000000000000f
:104da40000000000000000000000000000000000ff
:104db4000000000000000000ffff0000ffff0000f3
:104dc40000000000000000000000000000000000df
:104dd40000000000000000000000000000000000cf
:104de40000ff0000ffff0000ffe00000e0e0000023
:104df400e0e00000e0e00000e0e00000e0e00000af
:104e0400e0e00000e0e00000e0e00000e0e000009e
:104e1400e0e00000e0e00000e0e00000e0e000008e
:104e2400e0e00000e0e00000e0e00000e0e000007e
:104e3400e0e00000e0e00000e0e00000e0e000006e
:104e4400e0e00000e0e00000e0e00000e0e000005e
:104e5400e0e00000e0e00000e0e00000e0e000004e
:104e6400e0e00000e0e00000e0e00000e0e000003e
:104e7400e0e00000e0e00000e0e00000e0e000002e
:104e8400e0e00000e0e00000e0e00000e0e000001e
:104e9400e0e00000e0e00000e0e00000e0e000000e
:104ea400e0e00000e0e00000e0e00000e0e00000fe
:104eb400e0e00000e0e00000ffff0000ffff000072
:104ec40000000000000000000000000000000000de
:104ed40000000000000000000000000000000000ce
:104ee40000010000010100000101000001010000b7
:104ef40001010000010100000101000001010000a6
:104f04000101000001010000010100000101000095
:104f14000101000001010000010100000101000085
:104f24000101000001010000010100000101000075
:104f34000101000001010000010100000101000065
:104f44000101000001010000010100000101000055
:104f54000101000001010000010100000101000045
:104f64000101000001010000010100000101000035
:104f74000101000001010000010100000101000025
:104f84000101000001010000010100000101000015
:104f94000101000001010000010100000101000005
:104fa40001010000010100000101000001010000f5
:104fb40001010000010100000101000001010000e5
:104fc40000000000000000000000000000000000dd
:104fd40000000000000000000000000000000000cd
:104fe40000c00000c0c00000c0c00000c0c000007d
:104ff400c0c00000c0c00000c0c00000c0c00000ad
:10500400c0c00000c0c00000c0c00000c0c000009c
:10501400c0c00000c0c00000c0c00000c0c000008c
:10502400c0c00000c0c00000c0c00000c0c000007c
:10503400c0c00000c0c00000c0c00000c0c000006c
:10504400c0c00000c0c00000c0c00000c0c000005c
:10505400c0c00000c0c00000c0c00000c0c000004c
:10506400c0c00000c0c00000c0c00000c0c000003c
:10507400c0c00000c0c00000c0c00000c0c000002c
:10508400c0c00000c0c00000c0c00000c0c000001c
:10509400c0c00000c0c00000c0c00000c0c000000c
:1050a400c0c00000c0c00000c0c00000c0c00000fc
:1050b400c0c00000c0c00000c0c00000c0c00000ec
:1050c40000000000000000000000000000000000dc
:1050d40000000000000000000000000000000000cc
:1050e40000ff0000ffff0000ff03000003030000b7
:1050f4000303000003030000030300000303000094
:105104008383000083830000838300008383000083
:1051140083830000830300000303000003030000f3
:105124008383000083830000030300008383000063
:105134008383000083830000838300008383000053
:1051440083830000838300008303000003030000c3
:1051540003030000030300008383000083030000b3
:105164000303000083830000838300008383000023
:105174008383000003030000030300008383000013
:105184008383000083830000838300008303000083
:105194000303000083830000830300000303000073
:1051a40003030000030300000303000003030000e3
:1051b4000303000003030000ffff0000ffff0000e3
:1051c40000000000000000000000000000000000db
:1051d40000000000000000000000000000000000cb
:1051e40000ff0000ffff0000ff00000000000000bf
:1051f40000000000000000000000000000000000ab
:105204000001000081c10000f07900002f0f0000b0
:105214000f0300000100000080c00000e8ff000050
:10522400ef470000efff0000fef0000080010000e7
:1052340000010000abff0000ff05000001010000b9
:1052440000010000000300000f7f0000fae00000ee
:1052540080c00000e8fe00003e0700002bfc0000b8
:10526400fedf0000830100000001000001010000d6
:1052740002030000efff0000fe000000aaff000090
:10528400ff71000021710000b0ff0000ef8f0000eb
:1052940000000000efff0000aa0000000000000072
:1052a40000000000000000000000000000000000fa
:1052b4000000000000000000ffff0000ffff0000ee
:1052c40000000000000000000000000000000000da
:1052d40000000000000000000000000000000000ca
:1052e40000ff0000ffff0000ff00000000000000be
:1052f40000000000000000000000000000000000aa
:105304000e0700000f0700000e0600000e06000046
:105314000e0600000e0400000e070000030000004b
:105324000000000000000000020700000f0700005a
:10533400000000000a0700000f0400000000000045
:10534400000000000000000000000000030700004f
:105354000f07000003000000000000000000000030
:1053640003030000030600000e0600000e06000002
:105374000607000003010000000000000a07000007
:105384000e00000000000000000100000f070000f4
:105394000a0000000f0700000200000000000000e7
:1053a40000000000000000000000000000000000f9
:1053b4000000000000000000ffff0000ffff0000ed
:1053c40000000000000000000000000000000000d9
:1053d40000000000000000000000000000000000c9
:1053e40000ff0000ffff0000ff00000000000000bd
:1053f40000000000000000000000000000000000a9
:105404000000000000000000000000000000000098
:105414000000000028f00000e0c0000000000000d0
:105424000000000080f00000f87000000840000058
:10543400f0f00000a830000038300000e0f0000078
:10544400e00000000000000000800000e8f0000020
:10545400f8f00000e00000000030000028300000f8
:1054640038300000e8f00000b830000028300000b8
:1054740028000000e0f00000f8f00000e8c00000a0
:105484000000000000000000000000000000000018
:105494000000000000000000000000000000000008
:1054a40000000000000000000000000000000000f8
:1054b4000000000000000000ffff0000ffff0000ec
:1054c40000000000000000000000000000000000d8
:1054d40000000000000000000000000000000000c8
:1054e40000ff0000ffff0000ff00000000000000bc
:1054f40000000000000000000000000000000000a8
:105504000000000000000000000000000000000097
:1055140000000000000100000f1f0000fef000006a
:10552400f87c00002f07000002000000004100008a
:10553400ffff0000ae0600000e0e0000afff0000eb
:10554400eb800000e0f00000fe1f00000b190000db
:10555400081f00002f7f0000f8e00000800000001a
:1055640000040000ffff0000aa00000080e000002b
:10557400f87f00002f1f0000081900000f1f000013
:10558400fef80000e0000000000000000000000041
:105594000000000000000000000000000000000007
:1055a40000000000000000000000000000000000f7
:1055b4000000000000000000ffff0000ffff0000eb
:1055c40000000000000000000000000000000000d7
:1055d40000000000000000000000000000000000c7
:1055e40000ff0000ffff0000ffe00000e0e000001b
:1055f400e0e00000e0e00000e0e00000e0e00000a7
:10560400e0e00000e0e00000e0e00000e0e0000096
:10561400e0e00000e0e00000e0e00000e0e0000086
:10562400e0e00000e0e00000e0e00000e0e0000076
:10563400e0e00000e0e00000e0e00000e0e0000066
:10564400e0e00000e0e00000e0e00000e0e0000056
:10565400e0e00000e0e00000e0e00000e0e0000046
:10566400e0e00000e0e00000e0e00000e0e0000036
:10567400e0e00000e0e00000e0e00000e0e0000026
:10568400e0e00000e0e00000e0e00000e0e0000016
:10569400e0e00000e0e00000e0e00000e0e0000006
:1056a400e0e00000e0e00000e0e00000e0e00000f6
:1056b400e0e00000e0e00000ffff0000ffff00006a
:1056c40000000000000000000000000000000000d6
:1056d40000000000000000000000000000000000c6
:1056e40000010000010100000101000001010000af
:1056f400010100000101000001010000010100009e
:10570400010100000101000001010000010100008d
:10571400010100000101000001010000010100007d
:10572400010100000101000001010000010100006d
:10573400010100000101000001010000010100005d
:10574400010100000101000001010000010100004d
:10575400010100000101000001010000010100003d
:10576400010100000101000001010000010100002d
:10577400010100000101000001010000010100001d
:10578400010100000101000001010000010100000d
:1057940001010000010100000101000001010000fd
:1057a40001010000010100000101000001010000ed
:1057b40001010000010100000101000001010000dd
:1057c40000000000000000000000000000000000d5
:1057d40000000000000000000000000000000000c5
:1057e40000000000000000000000000000000000b5
:1057f400000000003eff0000ff3e0000000000002b
:1058040000000000000d00000d000000000000007a
:105814000004000007030000000400000703000068
:105824000000000000000000000000000000000074
:1058340010fe0000fe10000010fe0000fe1000002c
:10584400010f00000f010000010f00000f01000014
:105854001c3e000022ff0000ff420000ce8c00002e
:1058640003070000040f00000f04000007030000fa
:105874000000000006c60000f03c00000e0200001c
:1058840000040000070300000006000006000000fa
:105894001e3f0000e1c10000412100003f1e000046
:1058a400060f0000090900000b0c00001e16000082
:1058b40000000000040700000300000000000000d6
:1058c40000000000000000000000000000000000d4
:1058d40000000000f8fe00000701000000000000c6
:1058e40000000000000700000e0800000000000097
:1058f4000000000001070000fef8000000000000a6
:1059040000000000080e0000070100000000000075
:1059140020a80000f870000070f80000a820000023
:105924000000000000000000000000000000000073
:105934002020000020fc0000fc20000020200000ab
:105944000000000000010000010000000000000051
:105954000000000000000000000000000000000043
:1059640000000000203c00001c00000000000000bb
:105974002020000020200000202000002020000023
:105984000000000000000000000000000000000013
:105994000000000000000000000000000000000003
:1059a40000000000000c00000c00000000000000db
:1059b4000000000000c00000f03c00000f030000e5
:1059c400000c00000f0300000000000000000000b5
:1059d400feff00000101000001010000fffe0000c5
:1059e400070f000008080000080800000f07000067
:1059f4000004000006ff0000ff000000000000009b
:105a040000080000080f00000f0800000800000054
:105a14000203000081c10000613100001f0e00007c
:105a24000e0f00000908000008080000080c000020
:105a3400020300000121000021210000ffde00001c
:105a4400040c000008080000080800000f0700000c
:105a5400e0f00000988c000086ff0000ff000000ca
:105a64000000000000000000080f00000f08000004
:105a74003f3f00002121000021210000e1c100007e
:105a8400040c000008080000080800000f070000cc
:105a9400fcfe00002321000021210000e0c00000e2
:105aa400070f000008080000080800000f070000a6
:105ab4000303000001810000e17900001f070000da
:105ac40000000000000f00000f00000000000000b4
:105ad400deff00002121000021210000ffde000084
:105ae400070f000008080000080800000f07000066
:105af4001e3f00002121000021210000fffe0000c4
:105b04000008000008080000080c0000070300005b
:105b14000000000000180000180000000000000051
:105b24000000000000060000060000000000000065
:105b34000000000000180000180000000000000031
:105b440000000000101e00000e0000000000000015
:105b540040e00000b01800000c0600000200000045
:105b64000000000001030000060c00000800000013
:105b740000a00000a0a00000a0a00000a000000061
:105b84000000000000000000000000000000000011
:105b940000020000060c000018b00000e040000005
:105ba400000800000c0600000301000000000000d3
:105bb4000203000001c10000e13100001f0e0000db
:105bc40000000000000d00000d00000000000000b7
:105bd4000203000001c10000e13100001f0e0000bb
:105be40000000000000d00000d0000000000000097
:105bf400f8fc00008683000083860000fcf80000a7
:105c04000f0f000000000000000000000f0f000054
:105c1400ffff00002121000021210000ffde000021
:105c24000f0f000008080000080800000f0700001c
:105c3400fcfe000003010000010100000306000057
:105c4400030700000c080000080800000c06000010
:105c540001ff0000ff01000001030000fefc000042
:105c6400080f00000f080000080c000007030000e4
:105c740001ff0000ff210000217100000303000068
:105c8400080f00000f080000080800000c0c0000ba
:105c940001ff0000ff210000217100000303000048
:105ca400080f00000f0800000000000000000000c2
:105cb400fcfe00000301000041410000c3c60000d7
:105cc400030700000c08000008080000070f00008c
:105cd400ffff00002020000020200000ffff000044
:105ce4000f0f000000000000000000000f0f000074
:105cf4000001000001ff0000ff010000010000009e
:105d040000080000080f00000f0800000800000051
:105d1400000000000000000001ff0000ff0100007f
:105d2400060e000008080000080f0000070000002d
:105d340001ff0000ff700000d88c00000703000082
:105d4400080f00000f000000000100000f0e00000b
:105d540001ff0000ff01000000000000000000003f
:105d6400080f00000f080000080800000c0c0000d9
:105d7400ffff00000c780000780c0000ffff00001b
:105d84000f0f000000000000000000000f0f0000d3
:105d9400ffff00001c38000070e00000ffff00005f
:105da4000f0f000000000000000000000f0f0000b3
:105db400feff00000101000001010000fffe0000e1
:105dc400070f000008080000080800000f07000083
:105dd40001ff0000ff210000212100003f1e000000
:105de400080f00000f080000000000000000000081
:105df400feff00000101000001010000fffe0000a1
:105e0400070f0000080e00001c3800002f070000d8
:105e140001ff0000ff21000021610000ff9e00003f
:105e2400080f00000f080000000000000f0f000022
:105e34000e1f00003121000021610000c786000010
:105e4400060e000008080000080800000f07000004
:105e54000303000001ff0000ff0100000303000032
:105e640000000000080f00000f0800000000000000
:105e7400ffff00000000000000000000ffff000022
:105e8400070f000008080000080800000f070000c2
:105e9400ffff00000000000000000000ffff000002
:105ea40001030000060c00000c06000003010000c2
:105eb400ffff000000e00000e0000000ffff000022
:105ec400010f00000e030000030e00000f0100008c
:105ed400070f000098f00000f09800000f07000082
:105ee4000e0f000001000000000100000f0e000072
:105ef4000f1f000030e00000e03000001f0f000022
:105f040000000000080f00000f080000000000005f
:105f140003830000c1610000311900000f07000075
:105f24000f0f000008080000080800000c0c000017
:105f340000000000ffff000001010000000000005d
:105f4400000000000f0f000008080000000000001f
:105f540055aa000055aa000055aa000055aa000041
:105f640055aa000055aa000055aa000055aa000031
:105f74000000000001010000ffff0000000000001d
:105f840000000000080800000f0f000000000000df
:105f9400080c000006030000030600000c080000c3
:105fa40000000000000000000000000000000000ed
:105fb40000000000000000000000000000000000dd
:105fc400101000001010000010100000101000004d
:105fd40000000000080f000007000000000000009f
:105fe40000000000000000000000000000000000ad
:105ff400009000009090000090f00000e00000008d
:10600400070f000008080000080700000f08000040
:1060140001ff0000ff10000010300000e0c000008d
:10602400080f000007080000080800000f07000020
:10603400e0f00000101000001010000030200000fc
:10604400070f000008080000080800000c04000006
:10605400c0e000003010000011ff0000ff0000004d
:10606400070f000008080000080700000f080000e0
:10607400e0f000009090000090900000f0e000003c
:10608400070f000008080000080800000c040000c6
:1060940000100000feff00001111000003020000c8
:1060a400000800000f0f00000800000000000000be
:1060b400e0f000001010000010e00000f0100000fc
:1060c400276f000048480000487f00003f000000a0
:1060d40001ff0000ff20000010100000f0e00000ad
:1060e400080f00000f000000000000000f0f000068
:1060f4000010000010f60000f60000000000000090
:1061040000080000080f00000f080000080000004d
:106114000000000010100000f6f60000000000006f
:1061240030600000404000007f3f0000000000009d
:1061340001ff0000ffc00000c0600000301000003c
:10614400080f00000f000000010300000e0c000007
:106154000001000001ff0000ff000000000000003b
:1061640000080000080f00000f08000008000000ed
:10617400f0f0000030e00000e0300000f0e000004b
:106184000f0f000000070000070000000f0f0000c1
:1061940010f00000e010000010100000f0e000001b
:1061a400000f00000f000000000000000f0f0000af
:1061b400e0f000001010000010100000f0e00000fb
