:020000040000fa
:080000000001040000000000f3
:020000040000fa
:0400080014020000de
:020000040000fa
:04000c0014020000da
:020000040000fa
:0400100014020000d6
:020000040000fa
:0400140014020000d2
:020000040000fa
:0400180014020000ce
:020000040000fa
:04001c0014020000ca
:020000040000fa
:0400200014020000c6
:020000040000fa
:0400240014020000c2
:020000040000fa
:0400280014020000be
:020000040000fa
:04002c0014020000ba
:020000040000fa
:0400300014020000b6
:020000040000fa
:0400340014020000b2
:020000040000fa
:0400380014020000ae
:020000040000fa
:04003c0014020000aa
:020000040000fa
:04004000cc010000ef
:020000040000fa
:0400440014020000a2
:020000040000fa
:04004800140200009e
:020000040000fa
:04004c00140200009a
:020000040000fa
:040050001402000096
:020000040000fa
:04005400e8010000bf
:020000040000fa
:04005800140200008e
:020000040000fa
:04005c00140200008a
:020000040000fa
:040060001402000086
:020000040000fa
:040064001402000082
:020000040000fa
:04006800140200007e
:020000040000fa
:04006c00140200007a
:020000040000fa
:040070001402000076
:020000040000fa
:040074001402000072
:020000040000fa
:04007800140200006e
:020000040000fa
:04007c00140200006a
:020000040000fa
:040080001402000066
:020000040000fa
:040084001402000062
:020000040000fa
:04008800140200005e
:020000040000fa
:04008c00140200005a
:020000040000fa
:040090001402000056
:020000040000fa
:040094001402000052
:020000040000fa
:04009800140200004e
:020000040000fa
:04009c00140200004a
:020000040000fa
:0400a0001402000046
:020000040000fa
:0400a4001402000042
:020000040000fa
:0400a800140200003e
:020000040000fa
:0400ac00140200003a
:020000040000fa
:0400b0001402000036
:020000040000fa
:0400b4001402000032
:020000040000fa
:0400b800140200002e
:020000040000fa
:0400bc00140200002a
:020000040000fa
:0400c0001402000026
:020000040000fa
:0400c4001402000022
:020000040000fa
:0400c800140200001e
:020000040000fa
:0400cc00140200001a
:020000040000fa
:0400d0001402000016
:020000040000fa
:0400d4001402000012
:020000040000fa
:0400d800140200000e
:020000040000fa
:0401080014020000dd
:020000040000fa
:04010c0014020000d9
:020000040000fa
:0401100014020000d5
:020000040000fa
:0401140014020000d1
:020000040000fa
:0401180014020000cd
:020000040000fa
:04011c0014020000c9
:020000040000fa
:0401200014020000c5
:020000040000fa
:0401240014020000c1
:020000040000fa
:0401280014020000bd
:020000040000fa
:04012c0014020000b9
:020000040000fa
:0401300014020000b5
:020000040000fa
:0401340014020000b1
:020000040000fa
:0401380014020000ad
:020000040000fa
:04013c0014020000a9
:020000040000fa
:04014000cc010000ee
:020000040000fa
:0401440014020000a1
:020000040000fa
:04014800140200009d
:020000040000fa
:04014c001402000099
:020000040000fa
:040150001402000095
:020000040000fa
:04015400e8010000be
:020000040000fa
:04015800140200008d
:020000040000fa
:04015c001402000089
:020000040000fa
:040160001402000085
:020000040000fa
:040164001402000081
:020000040000fa
:04016800140200007d
:020000040000fa
:04016c001402000079
:020000040000fa
:040170001402000075
:020000040000fa
:040174001402000071
:020000040000fa
:04017800140200006d
:020000040000fa
:04017c001402000069
:020000040000fa
:040180001402000065
:020000040000fa
:040184001402000061
:020000040000fa
:04018800140200005d
:020000040000fa
:04018c001402000059
:020000040000fa
:040190001402000055
:020000040000fa
:040194001402000051
:020000040000fa
:04019800140200004d
:020000040000fa
:04019c001402000049
:020000040000fa
:0401a0001402000045
:020000040000fa
:0401a4001402000041
:020000040000fa
:0401a800140200003d
:020000040000fa
:0401ac001402000039
:020000040000fa
:0401b0001402000035
:020000040000fa
:0401b4001402000031
:020000040000fa
:0401b800140200002d
:020000040000fa
:0401bc001402000029
:020000040000fa
:0401c0001402000025
:020000040000fa
:0401c4001402000021
:020000040000fa
:0401c800140200001d
:020000040000fa
:0401cc001402000019
:020000040000fa
:0401d0001402000015
:020000040000fa
:0401d4001402000011
:020000040000fa
:0401d800140200000d
:020000040000fa
:100200004f8220000eff20000e0188000000000039
:10021000000020000000e000020032000001200089
:100220002002880014000700810007000000e000a1
:1002300003003a0000d12300010020000200370033
:100240000000200001002000810f7000010032003a
:1002500014000700000020000000e000020032004f
:100260000000020000000000303b0200000000001f
:100270000040da000000fe004440a90080db2200bc
:100280000000e0000300320000002000a001880010
:100290004440a800000006008a1f78008b1f7800e9
:1002a0000000060091018800800478000000eb0047
:1002b0001a003700e284440032a0b4009905ba0065
:1002c000e284440032a0b4009906ba00e2844400fb
:1002d00032a0b4000006eb00476fde00fd07b2005d
:1002e000636ce10003003a00ebff07000000eb0045
:1002f0000a003700606ce10004003a00005deb008a
:100300008b05e900fdff3e00040037006168e10055
:10031000010032000086eb000b00070019c7ba008d
:100320001905ba000e04e00003003a000a00e000dc
:10033000e0ff3a0000000600fe07b2009e018800c0
:100340008a047800f5ff3700395dba008b05e900b3
:100350000c003200295dba008b05e900080032006c
:100360000c00e00003003a00e284440032a0b40034
:10037000f5ff370019ddba008b05e900faff3a00f6
:100380008904e800e184440032a0b40000000600c3
:100390000000000000000000801f78003400f8001a
:1003a00000002000a00188000000fa000621ef00f4
:1003b000504080000000e8005040880084c0a90040
:1003c0000080fa003400f9004f0078000040060079
:1003d000801f78003400f80000002000a001880091
:1003e0000000fa0000148000104088001014800003
:1003f00020408800201480003040880030148000a5
:100400004040880010408000e0408800204080008c
:10041000f04088008560a9000080fa003400f900ef
:100420004f007800004006000040da000000fe00a7
:1004300000000500889fbe008a9fbe008c1f7800c8
:1004400099000700a000330003866c006450e100af
:100450002e0032006420e100330032006150e100e0
:100460002f0032006120e100310032008585550007
:10047000eb07b00009002000080420000500370049
:100480000804440089844c000a003100060343003c
:1004900087834b000001530081815b00f8ff33002c
:1004a0000203be000800a0000804440089844c0038
:1004b000f6ff3900c639dd00830173000100320008
:1004c000130020008904d1000884d3000998a300f8
:1004d000050032000800a7000300a0008904d10035
:1004e0000884d3008b05e8008904d1000884d30078
:1004f0000001eb000281d2003000070001f0a100f2
:100500000cf0a70001f0a000780037006420e100a3
:100510007a0032000801be000200be00f7ff37007b
:100520006120e100750032006000b800f3ff370081
:100530000000200001f82700f0ff37000001be0096
:10054000440007000470a70003f0a10003f8a30013
:1005500013003a006509b1001000320009003500af
:100560006928e100020035000100280000000500b4
:1005700000004000818048008502e900fcff3a004d
:1005800000000600f88f4200050035008100d10010
:100590000080d3008502e800fcff3a00000006005e
:1005a0008000eb00000005004f89de00820178002a
:1005b000890037006011b8009700370081002000e3
:1005c000618055000b003d000b00200061fe2f00f4
:1005d0000100e1001d0034008281710061016400ae
:1005e0008904d1000884d3000000e800faff3a0033
:1005f00071002000610064000300700002006000d0
:100600000900320061044400e0844c000988a50020
:10061000050032008b05e8006808e10002003a009e
:100620008904d1000884d300f20f20000258e100b1
:1006300005003d00c75ddd00f907b2008980750047
:1006400008007800000006000bf827008b007800f7
:1006500000000500c70ade00f107b200f50fb20086
:1006600008003200e1cf4200020032000170a00019
:1006700024000500810f700001003200040805000d
:1006800044000500810f700002003a0014000500cc
:100690008502e9000000400081c04800fcff3b00eb
:1006a0000170a000240005000004be00e9ff07005f
:1006b0000003be000405be000200be00e5ff070007
:1006c000844f7500000006000200be006450e10087
:1006d000050036006420e100020036000968a3002e
:1006e00001003a000800be000160a0004f0678003b
:1006f0004f05be004f04be0000000600f0ff2f00b3
:10070000f1ff2700f9ff3700889fbe008a9fbe00d7
:100710008c1f7800e4ff0700ebff330003866c00ba
:100720006450e100240032006420e1002700320020
:100730006150e100220032006120e100210032001e
:100740008b854200eb07b1000134b800003ab800d5
:100750000804420089844a00013ab8000030b80019
:100760008880400009014a00040033000000400076
:1007700081804800020149008b05e900c909dd00bc
:10078000830170000100320013002000c814de0055
:100790004814dd004709de001200b200c808de0080
:1007a0000884700085ff070001f0a1000cf0a7008d
:1007b00001f0a000cdff37006120e100cfff320043
:1007c0000801be000200be00f7ff37006150e100e3
:1007d000fcff3a00c9ff3700881f78000304780047
:1007e0000300e00007003d0060001000e0801800fa
:1007f00060011900e081190002003b0001f02d00aa
:10080000030037000400070008f0a70001f0a00073
:100810004f04780000000600889fbe008a9fbe003b
:100820000082700004027100048271002600320010
:100830000004be000200be006011b8006b09200079
:10084000950220000182cf000a0039000541b10065
:100850000082cf00070039000541b1000982cf00b6
:10086000040039000541b1000882cf0001003900c1
:100870000541b10005425200120032000a003b005f
:1008800082817100610164008100d1000080d30089
:100890008984d3000884d3008b05e8000442e80073
:1008a000f7ff3a00070037000804440089844c0031
:1008b00000004800818048008b05e9000442e900ff
:1008c000f9ff3a003dff07004f05be004f04be0090
:0408d000000006001e
:020000040000fa
:1008d4000000000000000000000000000000000014
:1008e4000000000000000000000000000000000004
:1008f40000000000000000000000000000000000f4
:1009040000000000000000000000000000000000e3
:1009140000000000000000000000000000000000d3
:1009240000000000000000000000000000000000c3
:1009340000000000000000000000000000000000b3
:1009440000000000000000000000000000000000a3
:100954000000000000000000000000000000000093
:100964000000000000000000000000000000000083
:100974000000000000000000000000000000000073
:100984000000000000000000000000000000000063
:100994000000000000000000000000000000000053
:1009a4000000000000000000000000000000000043
:1009b4000000000000000000000000000000000033
:1009c4000000000000000000000000000000000023
:1009d4000000000000000000000000000000000013
:1009e4000000000000000000000000000000000003
:1009f40000000000000000000000000080f800007b
:100a0400f8f80000f8e0000000000000000000001a
:100a1400f8f80000f800000080e00000f87800001a
:100a24001800000038380000f8f80000f83800001a
:100a34003800000000000000f8f80000f800000092
:100a440000380000f8f80000c000000000c00000fa
:100a5400f8f800007800000000f80000f8f8000042
:100a64000000000000000000f8f800003838000022
:100a740078f00000f0c0000000000000000000005a
:100a8400f0f80000f8f80000f0000000000000009a
:100a94000000000000f80000f8f80000000000006a
:100aa4000000000000000000000000000000000042
:100ab4000000000000000000000000000000000032
:100ac4000000000000000000000000000000000022
:100ad4000000000000000000000000000000000012
:100ae4000000000000000000000000000000000002
:100af400000000000000000080f80000ff7f0000fc
:100b0400737000007fff0000fee0000000000000a2
:100b1400ffff0000ff0e00003fff0000ffe00000a9
:100b24008000000000000000ffff0000ff00000044
:100b34000000000000000000ffff0000ff000000b4
:100b440000000000031f0000fffc0000fcff000089
:100b54003f0300000000000000ff0000ffff000052
:100b64000000000000000000ffff00000e1e000057
:100b74007fff0000e781000000000000f0ff00009c
:100b8400ff770000707f0000ffff0000f00000000e
:100b9400c0c00000c0ff0000ff7f00000000000094
:100ba4000000000000000000000000000000000041
:100bb4000000000000000000000000000000000031
:100bc4000000000000000000000000000000000021
:100bd4000000000000000000000000000000000011
:100be4000000000000000000000000000000000001
:100bf40000000000000000000101000001000000ee
:100c040000000000000100000101000000000000dd
:100c140001010000010000000000000001010000cb
:100c240001000000000000000101000001000000bc
:100c340000000000000000000101000001000000ad
:100c4400000000000000000000010000010100009d
:100c5400000000000000000000010000010100008d
:100c6400000000000000000001010000000000007e
:100c7400000100000101000000010000010100006a
:100c8400000000000000000001010000010100005c
:100c9400000100000101000000000000000000004d
:100ca4000000000000000000000000000000000040
:100cb4000000000000000000000000000000000030
:100cc4000000000000000000000000000000000020
:100cd4000000000000000000000000000000000010
:100ce4000000000000000000000000000000000000
:100cf40000000000000000000000000000000000f0
:100d040000000000000000000000000000000000df
:100d140000000000000000000000000000e00000ef
:100d2400f0f00000f0e0000000000000000000000f
:100d340000f00000f00000000000000000000000cf
:100d440000000000e0f00000f0f00000e00000000f
:100d54000000000000f00000f0f0000070700000df
:100d6400f0e00000e00000000000000000f00000df
:100d7400f0f00000f080000000e00000f0f000005f
:100d8400f0f000000000000000000000000000007f
:100d9400000000000000000000000000000000004f
:100da400000000000000000000000000000000003f
:100db400000000000000000000000000000000002f
:100dc400000000000000000000000000000000001f
:100dd400000000000000000000000000000000000f
:100de40000000000000000000000000000000000ff
:100df40000000000000000000000000000000000ef
:100e040000000000000000000000000000000000de
:100e1400000000000000000000e00000feff0000f1
:100e2400efe10000ffff0000fee000000000000012
:100e340000ff0000ff800000808000000000000030
:100e4400e0fe0000ffef0000e1ff0000fffe0000f5
:100e5400e000000000ff0000ffff00001c7c000019
:100e6400ffff0000c701000000000000ffff0000ba
:100e7400ff0300007fff0000fcff00000f070000dd
:100e8400ffff0000e0000000000000000000000080
:100e9400000000000000000000000000000000004e
:100ea400000000000000000000000000000000003e
:100eb400000000000000000000000000000000002e
:100ec400000000000000000000000000000000001e
:100ed400000000000000000000000000000000000e
:100ee40000000000000000000000000000000000fe
:100ef40000000000000000000000000000000000ee
:100f040000000000000000000000000000000000dd
:100f140000000000000000000203000003010000c4
:100f240000000000000300000303000002000000b2
:100f3400000300000303000003030000000200009c
:100f44000303000001000000000000000303000090
:100f5400030200000003000003030000000000007f
:100f6400010300000302000000000000030300006e
:100f74000100000000030000030100000000000065
:100f84000303000003000000000000000000000054
:100f9400000000000000000000000000000000004d
:100fa400000000000000000000000000000000003d
:100fb400000000000000000000000000000000002d
:100fc400000000000000000000000000000000001d
:1012140000000000000000000000000000f00000da
:10122400f8f80000f8f000000000000000000000e2
:1012340000f80000f80000000000000000000000ba
:1012440000000000f0f80000f8f80000f0000000d2
:101254000000000000f80000f8f800003838000032
:10126400f8f00000f08000000000000080f80000aa
:10127400f8f80000f8c0000000f00000f8f80000e2
:10128400f8f800000000000000000000000000006a
:10129400000000000000000000000000000000004a
:1012a400000000000000000000000000000000003a
:1012b400000000000000000000000000000000002a
:1012c400000000000000000000000000000000001a
:1012d400000000000000000000000000000000000a
:1012e40000000000000000000000000000000000fa
:1012f40000000000000000000000000000000000ea
:1013040000000000000000000000000000000000d9
:10131400000000000000000000f00000ffff0000db
:10132400777000007fff0000fff000000000000065
:1013340000ff0000ffc00000c0c00000000000006b
:10134400f0ff0000ff770000707f0000ffff000047
:10135400f000000000ff0000ffff00000e3e000050
:10136400ffff0000e300000000000000ffff00009a
:10137400ff0100003fff0000feff00000703000024
:10138400ffff0000f000000000000000000000006b
:101394000000000000000000000000000000000049
:1013a4000000000000000000000000000000000039
:1013b4000000000000000000000000000000000029
:1013c4000000000000000000000000000000000019
:1013d4000000000000000000000000000000000009
:1013e40000000000000000000000000000000000f9
:1013f40000000000000000000000000000000000e9
:1014040000000000000000000000000000000000d8
:1014140000000000000000000101000001000000c5
:1014240000000000000100000101000001000000b4
:1014340000010000010100000101000000010000a2
:101444000101000000000000000000000101000094
:101454000101000000010000010100000000000083
:101464000001000001010000000000000101000073
:101474000000000000010000010000000000000066
:101484000101000001000000000000000000000055
:101494000000000000000000000000000000000048
:1014a4000000000000000000000000000000000038
:1014b4000000000000000000000000000000000028
:1014c4000000000000000000000000000000000018
:1014d4000000000000000000000000000000000008
:1014e40000000000000000000000000000000000f8
:1014f40000000000000000000000000080f0000078
:10150400f0f00000f0800000000000000000000087
:10151400f0f00000f000000080e00000f0f00000b7
:101524003000000070700000f0f00000f070000067
:101534007000000000f00000f0f000000000000067
:1015440010f00000f0f000000000000000c00000f7
:10155400f0f000007000000000f00000f0f0000067
:101564000000000000f00000f0f0000070700000c7
:10157400f0e00000e00000000000000000000000b7
:10158400f0f00000f0f00000c000000000000000d7
:1015940000f00000f0f00000e08000000000000017
:1015a400f0f00000f0000000000000000000000067
:1015b4000000000000000000000000000000000027
:1015c4000000000000000000000000000000000017
:1015d4000000000000000000000000000000000007
:1015e40000000000000000000000000000000000f7
:1015f400000000000000000080f80000ffff000071
:10160400e1e70000ffff0000f88000000000000098
:10161400ffff0000ff1c00007fff0000f3c000007c
:101624000000000000000000ffff0000ff000000b9
:101634000000000000ff0000ffff000000000000a9
:10164400000000000f7f0000fff00000fcff00001e
:101654003f0300000000000000ff0000ffff000047
:101664000000000000ff0000ffff00001c7c0000e1
:10167400ffff0000c701000000000000f0ff0000b1
:10168400ffe70000e1ff0000fffc0000c0000000d5
:1016940000ff0000ffff0000070f00003ef80000fd
:1016a400ffff0000ff000000000000000000000039
:1016b4000000000000000000000000000000000026
:1016c4000000000000000000000000000000000016
:1016d4000000000000000000000000000000000006
:1016e40000000000000000000000000000000000f6
:1016f40000000000000000000303000003000000dd
:1017040000000000000300000303000000000000cc
:1017140003030000030000000001000003030000b5
:1017240003000000000000000303000003000000a9
:10173400000000000003000003030000000000009c
:10174400000000000000000003030000030100008b
:10175400000000000000000000030000030300007c
:10176400000000000003000003030000000000006c
:101774000103000003020000000300000303000053
:10178400000000000000000003030000030000004c
:10179400000300000303000000000000000000003c
:1017a400030300000300000000000000000000002c
:1017b4000000000000000000000000000000000025
:1017c4000000000000000000000000000000000015
:1017d4000000000000000000000000000000000005
:1017e40000000000000000000000000000000000f5
:1019e400000000000000000000000000f8f8000003
:1019f400f838000038780000f0e00000c000000073
:101a040000f80000f8f80000383800003800000042
:101a14000038000038f80000f8f8000038380000fa
:101a24000000000000f80000f8380000383800001a
:101a34003800000000f80000f8f800000080000002
:101a4400e0f80000781800000038000038f80000c2
:101a5400f8f800003838000000000000c0f0000072
:101a6400f878000038380000f8f00000e0000000ca
:101a740000380000f8f80000c000000000c00000ba
:101a8400f8f800007800000000000000c0f8000032
:101a9400f8f80000f8c0000000000000000000009a
:101aa400f8f80000f8e000008000000000f80000f2
:101ab400f8f8000000000000000000000000000032
:101ac4000000000000000000000000000000000012
:101ad4000000000000000000000000000000000002
:101ae400000000000000000000000000ffff0000f4
:101af400ffc00000c0e00000ff7f00003f000000c6
:101b040000ff0000ffff0000c7c70000c70000007f
:101b14000000000000ff0000ffff000000000000c4
:101b24000000000000ff0000ffc70000c7c700005e
:101b3400c000000000ff0000ffff00000e3f000097
:101b4400ffff0000e08000000000000000ff000034
:101b5400ffff000000000000000000003fff000045
:101b6400ffe00000c0c00000ffff00007f0f000086
:101b740000000000031f0000fffc0000fcff000049
:101b84003f03000000000000c0fc0000ff7f0000d5
:101b9400707300007fff0000fcc000000000000024
:101ba400ffff0000ff0700000f3e0000fcff0000e5
:101bb400ffff000000000000000000000000000023
:101bc4000000000000000000000000000000000011
:101bd4000000000000000000000000000000000001
:101be40000000000000000000000000001010000ef
:101bf40001010000010100000000000000000000dd
:101c040000010000010100000101000001000000ca
:101c140000000000000100000101000000000000bd
:101c240000000000000100000101000001010000ab
:101c3400010000000001000001010000000000009c
:101c4400000100000101000000000000000100008c
:101c5400010100000000000000000000000000007e
:101c6400000100000101000001000000000000006c
:101c7400000000000000000000010000010100005d
:101c8400000000000000000001010000010000004d
:101c9400000000000001000001010000000000003d
:101ca400010100000100000000000000000100002c
:101cb400010100000000000000000000000000001e
:101cc4000000000000000000000000000000000010
:101cd4000000000000000000000000000000000000
:101ce40000000000000000000000000000000000f0
:101cf40000000000000000000000000000000000e0
:101d040000000000000000000000000000000000cf
:101d140000000000000000000000000000000000bf
:101d240000000000000000000000000000000000af
:101d340000f00000f0f0000070700000e0e000002f
:101d4400c000000000000000f0f00000f0000000ff
:101d54000000000000f00000f0f00000f0f00000cf
:101d640000800000f0f00000f0f00000000000002f
:101d7400000000000000000000000000000000005f
:101d8400000000000000000000000000000000004f
:101d9400000000000000000000000000000000003f
:101da400000000000000000000000000000000002f
:101db400000000000000000000000000000000001f
:101dc400000000000000000000000000000000000f
:101dd40000000000000000000000000000000000ff
:101de40000000000000000000000000000000000ef
:101df40000000000000000000000000000000000df
:101e040000000000000000000000000000000000ce
:101e140000000000000000000000000000000000be
:101e240000000000000000000000000000000000ae
:101e340000ff0000ffff000080800000e1ff0000c1
:101e4400ff3f000000000000ffff0000ff00000053
:101e540000000000e0ff0000ff0700000fff00008b
:101e6400fcff00007f030000ffff0000ff000000f4
:101e7400000000000000000000000000000000005e
:101e8400000000000000000000000000000000004e
:101e9400000000000000000000000000000000003e
:101ea400000000000000000000000000000000002e
:101eb400000000000000000000000000000000001e
:101ec400000000000000000000000000000000000e
:101ed40000000000000000000000000000000000fe
:101ee40000000000000000000000000000000000ee
:101ef40000000000000000000000000000000000de
:101f040000000000000000000000000000000000cd
:101f140000000000000000000000000000000000bd
:101f240000000000000000000000000000000000ad
:101f3400000300000303000003030000010100008c
:101f44000000000000000000030300000300000084
:101f54000000000003030000030000000001000073
:101f6400030300000000000000030000030200005f
:101f7400000000000000000000000000000000005d
:101f8400000000000000000000000000000000004d
:101f9400000000000000000000000000000000003d
:101fa400000000000000000000000000000000002d
:1021e400000000000000000000000000f8f80000fb
:1021f400f838000038780000f0e00000c00000006b
:1022040000f80000f8f8000038380000380000003a
:102214000038000038f80000f8f8000038380000f2
:102224000000000000f80000f83800003838000012
:102234003800000000f80000f8f8000000800000fa
:10224400e0f80000781800000038000038f80000ba
:10225400f8f800003838000000000000c0f000006a
:10226400f878000038380000f8f00000e0000000c2
:1022740000380000f8f80000c000000000c00000b2
:10228400f8f800007800000000000000c0f800002a
:10229400f8f80000f8c00000000000000000000092
:1022a400f8f80000f8e000008000000000f80000ea
:1022b400f8f800000000000000000000000000002a
:1022c400000000000000000000000000000000000a
:1022d40000000000000000000000000000000000fa
:1022e400000000000000000000000000ffff0000ec
:1022f400ffc00000c0e00000ff7f00003f000000be
:1023040000ff0000ffff0000c7c70000c700000077
:102314000000000000ff0000ffff000000000000bc
:102324000000000000ff0000ffc70000c7c7000056
:10233400c000000000ff0000ffff00000e3f00008f
:10234400ffff0000e08000000000000000ff00002c
:10235400ffff000000000000000000003fff00003d
:10236400ffe00000c0c00000ffff00007f0f00007e
:1023740000000000031f0000fffc0000fcff000041
:102384003f03000000000000c0fc0000ff7f0000cd
:10239400707300007fff0000fcc00000000000001c
:1023a400ffff0000ff0700000f3e0000fcff0000dd
:1023b400ffff00000000000000000000000000001b
:1023c4000000000000000000000000000000000009
:1023d40000000000000000000000000000000000f9
:1023e40000000000000000000000000001010000e7
:1023f40001010000010100000000000000000000d5
:1024040000010000010100000101000001000000c2
:1024140000000000000100000101000000000000b5
:1024240000000000000100000101000001010000a3
:102434000100000000010000010100000000000094
:102444000001000001010000000000000001000084
:102454000101000000000000000000000000000076
:102464000001000001010000010000000000000064
:102474000000000000000000000100000101000055
:102484000000000000000000010100000100000045
:102494000000000000010000010100000000000035
:1024a4000101000001000000000000000001000024
:1024b4000101000000000000000000000000000016
:1024c4000000000000000000000000000000000008
:1024d40000000000000000000000000000000000f8
:1024e40000000000000000000000000000000000e8
:1024f40000000000000000000000000000000000d8
:1025040000000000000000000000000000000000c7
:102514000000000000f00000f0f000007070000007
:10252400f0e00000c000000000800000e0e00000d7
:10253400f070000070f00000e0c000000000000037
:1025440000000000f0f0000000000000c0f00000f7
:10255400f070000010000000f0f00000f0700000c7
:1025640070f00000e0e000000000000000f0000057
:10257400f0f00000707000007000000000700000b7
:1025840070f00000f0f00000707000000000000027
:102594000000000000000000000000000000000037
:1025a4000000000000000000000000000000000027
:1025b4000000000000000000000000000000000017
:1025c4000000000000000000000000000000000007
:1025d40000000000000000000000000000000000f7
:1025e40000000000000000000000000000000000e7
:1025f40000000000000000000000000000000000d7
:1026040000000000000000000000000000000000c6
:102614000000000000ff0000ffff00001c1c000081
:102624001f0f000007000000007f0000ffff0000f4
:10263400c080000080e10000ffff00003f000000b8
:1026440000000000ffff00001e3e0000ffff00002e
:10265400e180000000000000ffff0000ff1c0000fc
:102664007cff0000ffc700000100000000ff000025
:10267400ffff00008e8e00008e00000000000000ae
:1026840000ff0000ffff0000000000000000000049
:102694000000000000000000000000000000000036
:1026a4000000000000000000000000000000000026
:1026b4000000000000000000000000000000000016
:1026c4000000000000000000000000000000000006
:1026d40000000000000000000000000000000000f6
:1026e40000000000000000000000000000000000e6
:1026f40000000000000000000000000000000000d6
:1027040000000000000000000000000000000000c5
:1027140000000000000300000303000000000000ac
:1027240000000000000000000000000001010000a3
:102734000303000003030000010000000000000088
:10274400000000000303000000000000000300007c
:102754000303000000000000030300000300000066
:102764000001000003030000020000000003000059
:102774000303000003030000030000000000000046
:10278400000300000303000000000000000000003c
:102794000000000000000000000000000000000035
:1027a4000000000000000000000000000000000025
:1027b4000000000000000000000000000000000015
:1027c4000000000000000000000000000000000005
:102a04000000000000000000000000003838000052
:102a140038380000f8f80000f878000018000000ca
:102a24000000000080f80000f8f80000f8e0000062
:102a3400000000000038000038f80000f8f800003a
:102a44003838000000380000f8f80000e00000000a
:102a540000800000f8f80000f808000000c0000042
:102a6400f0f800007838000038f80000f0e00000ca
:102a74000000000000f80000f8f8000038380000fa
:102a8400f8f00000e000000000000000f8f800008a
:102a9400f80000000000000000000000000000003a
:102aa4000000000000000000000000000000000022
:102ab4000000000000000000000000000000000012
:102ac4000000000000000000000000000000000002
:102ad40000000000000000000000000000000000f2
:102ae40000000000000000000000000000000000e2
:102af40000000000000000000000000000000000d2
:102b040000000000000000000000000080e0000061
:102b1400f8ff0000ffc70000c1c00000c0000000b3
:102b240080f80000ff7f0000737000007fff00004a
:102b3400fee000000000000000ff0000ffff0000b6
:102b44000000000000000000010f0000fffe000074
:102b5400f8ff00003f07000000000000003f0000f5
:102b6400ffff0000e0c00000c0ff0000ff7f000086
:102b74000f00000000ff0000ffff00000e3e0000f9
:102b8400fff70000c300000000000000ffff00008a
:102b9400ff00000000000000000000000000000032
:102ba4000000000000000000000000000000000021
:102bb4000000000000000000000000000000000011
:102bc4000000000000000000000000000000000001
:102bd40000000000000000000000000000000000f1
:102be40000000000000000000000000000000000e1
:102bf40000000000000000000000000000000000d1
:102c040000000000000000000000000001010000be
:102c140001010000010100000101000001000000a9
:102c2400010100000100000000000000000100009c
:102c3400010100000000000000010000010100008b
:102c4400000000000000000000000000000100007f
:102c5400010100000000000000000000000000006e
:102c6400000000000101000001010000000000005c
:102c7400000000000001000001010000000000004d
:102c8400010100000101000000000000010100003a
:102c9400010000000000000000000000000000002f
:102ca4000000000000000000000000000000000020
:102cb4000000000000000000000000000000000010
:102cc4000000000000000000000000000000000000
:102cd40000000000000000000000000000000000f0
:102ce40000000000000000000000000000000000e0
:102cf40000000000000000000000000000000000d0
:102d040000000000000000000000000000000000bf
:102d140000000000000000000000000010f00000af
:102d2400f0f000000000000000c00000f0f000001f
:102d34007000000000f00000f0f00000707000006f
:102d4400f0e00000c000000000000000008000006f
:102d5400f0f00000f0f000008000000000700000bf
:102d640070700000f0f00000f070000070000000cf
:102d740000000000e0f00000f0f00000e0000000bf
:102d8400000000000000000000000000000000003f
:102d9400000000000000000000000000000000002f
:102da400000000000000000000000000000000001f
:102db400000000000000000000000000000000000f
:102dc40000000000000000000000000000000000ff
:102dd40000000000000000000000000000000000ef
:102de40000000000000000000000000000000000df
:102df40000000000000000000000000000000000cf
:102e040000000000000000000000000000000000be
:102e140000000000000000000000000000000000ae
:102e24000f7f0000fff00000fcff00003f030000e4
:102e34000000000000ff0000ffff00001c7c0000f9
:102e4400ffef00008700000000800000f8ff000092
:102e5400ffe10000e7ff0000fff800008000000031
:102e640000000000ffff0000ff0000000000000061
:102e7400e0fe0000ffef0000e1ff0000fffe0000a5
:102e8400e00000000000000000000000000000005e
:102e9400000000000000000000000000000000002e
:102ea400000000000000000000000000000000001e
:102eb400000000000000000000000000000000000e
:102ec40000000000000000000000000000000000fe
:102ed40000000000000000000000000000000000ee
:102ee40000000000000000000000000000000000de
:102ef40000000000000000000000000000000000ce
:102f040000000000000000000000000000000000bd
:102f140000000000000000000000000000000000ad
:102f24000000000003030000030100000000000093
:102f34000000000000030000030300000000000084
:102f44000303000003020000000300000303000069
:102f54000000000000000000030300000300000064
:102f64000000000003030000030000000002000052
:102f74000303000001000000000000000303000040
:102f84000302000000000000000000000000000038
:102f9400000000000000000000000000000000002d
:102fa400000000000000000000000000000000001d
:102fb400000000000000000000000000000000000d
:102fc40000000000000000000000000000000000fd
:10323400000000000000000000000000008000000a
:10324400e0e00000e0f00000f8f80000f8f800000a
:10325400f8f80000f8f00000e0c000008000000072
:10326400000000000000000000000000000000005a
:10327400000000000000000000000000000000004a
:10328400000000000000000000000000000000003a
:10329400000000000000000000000000000000002a
:1032a400000000000000000000000000000000001a
:1032b400000000000000000000000000000000000a
:1032c40000000000000000000000000000000000fa
:1032d40000000000000000000000000000000000ea
:1032e40000000000000000000000000000000000da
:1032f40000000000000000000000000000000000ca
:1033040000000000000000000000000000000000b9
:1033140000000000000000000000000000000000a9
:103324000000000000000000000000000000000099
:103334000000000000000000000000003a3f000010
:103344003f3f00003f3f00003f0700000303000031
:1033540003df0000ffff0000ffff0000ffff00008d
:103364000000000000000000000000000000000059
:103374000000000000000000000000000000000049
:103384000000000000000000000000000000000039
:103394000000000000000000000000000000000029
:1033a4000000000000000000000000000000000019
:1033b4000000000000000000000000000000000009
:1033c40000000000000000000000000000000000f9
:1033d40000000000000000000000000000000000e9
:1033e40000000000000000000000000000000000d9
:1033f40000000000000000000000000000000000c9
:1034040000000000000000000000000000000000b8
:1034140000000000000000000000000000000000a8
:103424000000000000000000000000000000000098
:103434000000000000000000000000000000000088
:103444000000000000000000fefe0000fefe000080
:10345400feff0000ffff0000efe700008301000013
:103464000000000000000000000000000000000058
:103474000000000000000000000000000000000048
:103484000000000000000000000000000000000038
:103494000000000000000000000000000000000028
:1034a4000000000000000000000000000000000018
:1034b4000000000000000000000000000000000008
:1034c40000000000000000000000000000000000f8
:1034d40000000000000000000000000000000000e8
:1034e40000000000000000000000000000000000d8
:1034f40000000000000000000000000000000000c8
:1035040000000000000000000000000000000000b7
:1035140000000000000000000000000000000000a7
:103524000000000000000000000000000000000097
:10353400000000000000000000600000e0e0000067
:10354400e0e00000e0e00000a00000000000000057
:1035540080ff0000ffff0000ffff0000ffff0000ee
:10356400aa000000000000000000000000000000ad
:103574000000000000000000000000000000000047
:103584000000000000000000000000000000000037
:103594000000000000000000000000000000000027
:1035a4000000000000000000000000000000000017
:1035b4000000000000000000000000000000000007
:1035c40000000000000000000000000000000000f7
:1035d40000000000000000000000000000000000e7
:1035e40000000000000000000000000000000000d7
:1035f40000000000000000000000000000000000c7
:1036040000000000000000000000000000000000b6
:1036140000000000000000000000000000000000a6
:103624000000000000000000000000000000000096
:10363400000000000000000000000000030700007c
:103644000f1f00003f7f00003f7f00007f7f0000ce
:103654007f7f00003f3f00003f1f00000f07000076
:103664000000000000000000000000000000000056
:103674000000000000000000000000000000000046
:103684000000000000000000000000000000000036
:103694000000000000000000000000000000000026
:103a340000000000000000000000000080c0000042
:103a4400e0f00000f8f00000f8f80000f8f80000da
:103a5400f8f80000f8f00000e0e00000e0000000ea
:103a64000000000000000000000000000000000052
:103a74000000000000000000000000000000000042
:103a84000000000000000000000000000000000032
:103a94000000000000000000000000000000000022
:103aa4000000000000000000000000000000000012
:103ab4000000000000000000000000000000000002
:103ac40000000000000000000000000000000000f2
:103ad40000000000000000000000000000000000e2
:103ae40000000000000000000000000000000000d2
:103af40000000000000000000000000000000000c2
:103b040000000000000000000000000000000000b1
:103b140000000000000000000000000000000000a1
:103b24000000000000000000000000000000000091
:103b3400000000000000000000fc0000ffff000087
:103b4400ffff0000ffff0000af07000003030000b9
:103b540087ff0000ffff0000ffff0000ffff0000e1
:103b6400aa000000000000000000000000000000a7
:103b74000000000000000000000000000000000041
:103b84000000000000000000000000000000000031
:103b94000000000000000000000000000000000021
:103ba4000000000000000000000000000000000011
:103bb4000000000000000000000000000000000001
:103bc40000000000000000000000000000000000f1
:103bd40000000000000000000000000000000000e1
:103be40000000000000000000000000000000000d1
:103bf40000000000000000000000000000000000c1
:103c040000000000000000000000000000000000b0
:103c140000000000000000000000000000000000a0
:103c24000000000000000000000000000000000090
:103c34000000000000000000000000000000000080
:103c4400000000000000000080c00000e8fc00004c
:103c5400feff0000ffff0000ff7f00000f030000d5
:103c64000000000000000000000000000000000050
:103c74000000000000000000000000000000000040
:103c84000000000000000000000000000000000030
:103c94000000000000000000000000000000000020
:103ca4000000000000000000000000000000000010
:103cb4000000000000000000000000000000000000
:103cc40000000000000000000000000000000000f0
:103cd40000000000000000000000000000000000e0
:103ce40000000000000000000000000000000000d0
:103cf40000000000000000000000000000000000c0
:103d040000000000000000000000000000000000af
:103d1400000000000000000000000000000000009f
:103d2400000000000000000000000000000000008f
:103d3400000000000000000000000000000000007f
:103d440080f00000f8fe0000feff0000ffff00000e
:103d5400bf9f00008f83000080800000800000006f
:103d6400000000000000000000000000000000004f
:103d7400000000000000000000000000000000003f
:103d8400000000000000000000000000000000002f
:103d9400000000000000000000000000000000001f
:103da400000000000000000000000000000000000f
:103db40000000000000000000000000000000000ff
:103dc40000000000000000000000000000000000ef
:103dd40000000000000000000000000000000000df
:103de40000000000000000000000000000000000cf
:103df40000000000000000000000000000000000bf
:103e040000000000000000000000000000000000ae
:103e1400000000000000000000000000000000009e
:103e2400000000000000000000000000000000008e
:103e34000000000000000000203000003a3f0000b5
:103e44003f3f00003f3f00003f3f00003f3f000076
:103e54003f3f00003f3f00003f3f00003f050000a0
:103e6400000000000000000000000000000000004e
:103e7400000000000000000000000000000000003e
:103e8400000000000000000000000000000000002e
:103e9400000000000000000000000000000000001e
:10423400000000000000000000000000004000003a
:10424400f0f00000f0f00000f0f00000f0f00000ea
:10425400f0f00000f000000000000000000000008a
:10426400000000000000000000000000000000004a
:10427400000000000000000000000000000000003a
:10428400000000000000000000000000000000002a
:10429400000000000000000000000000000000001a
:1042a400000000000000000000000000000000000a
:1042b40000000000000000000000000000000000fa
:1042c40000000000000000000000000000000000ea
:1042d40000000000000000000000000000000000da
:1042e40000000000000000000000000000000000ca
:1042f40000000000000000000000000000000000ba
:1043040000000000000000000000000000000000a9
:104314000000000000000000000000000000000099
:104324000000000000000000000000000000000089
:104334000000000000000000000000000005000074
:104344000707000007070000ffff0000ffff000051
:10435400ffff0000ff00000000000000000000005c
:104364000000000000000000000000000000000049
:104374000000000000000000000000000000000039
:104384000000000000000000000000000000000029
:104394000000000000000000000000000000000019
:1043a4000000000000000000000000000000000009
:1043b40000000000000000000000000000000000f9
:1043c40000000000000000000000000000000000e9
:1043d40000000000000000000000000000000000d9
:1043e40000000000000000000000000000000000c9
:1043f40000000000000000000000000000000000b9
:1044040000000000000000000000000000000000a8
:104414000000000000000000000000000000000098
:104424000000000000000000000000000000000088
:104434000000000000000000000000000000000078
:104444000000000000000000ffff0000ffff00006c
:10445400ffff0000ff00000000000000000000005b
:104464000000000000000000000000000000000048
:104474000000000000000000000000000000000038
:104484000000000000000000000000000000000028
:104494000000000000000000000000000000000018
:1044a4000000000000000000000000000000000008
:1044b40000000000000000000000000000000000f8
:1044c40000000000000000000000000000000000e8
:1044d40000000000000000000000000000000000d8
:1044e40000000000000000000000000000000000c8
:1044f40000000000000000000000000000000000b8
:1045040000000000000000000000000000000000a7
:104514000000000000000000000000000000000097
:104524000000000000000000000000000000000087
:104534000000000000000000000000000000000077
:104544000000000000000000ffff0000ffff00006b
:10455400ffff0000ff00000000000000000000005a
:104564000000000000000000000000000000000047
:104574000000000000000000000000000000000037
:104584000000000000000000000000000000000027
:104594000000000000000000000000000000000017
:1045a4000000000000000000000000000000000007
:1045b40000000000000000000000000000000000f7
:1045c40000000000000000000000000000000000e7
:1045d40000000000000000000000000000000000d7
:1045e40000000000000000000000000000000000c7
:1045f40000000000000000000000000000000000b7
:1046040000000000000000000000000000000000a6
:104614000000000000000000000000000000000096
:104624000000000000000000000000000000000086
:104634000000000000000000000000000000000076
:1046440000000000000000003f3f00003f3f00006a
:104654003f3f00003f000000000000000000000099
:104664000000000000000000000000000000000046
:104674000000000000000000000000000000000036
:104684000000000000000000000000000000000026
:104694000000000000000000000000000000000016
:104a1400aafe0000fefe0000aa0000000044000000
:104a2400fefe0000fe4400000000000080f00000d4
:104a3400f8fc0000be0e00000e1e00003e1c00002c
:104a440018100000000000000000000080f00000ca
:104a5400fe7e0000aefe0000fec00000000000006c
:104a640000000000f8fc0000fede00008e0e0000d6
:104a74000e14000000000000005c0000fefe0000b8
:104a8400fe00000000000000000000000000000024
:104a94000000000000000000000000000000000012
:104aa4000000000000000000000000000000000002
:104ab40000000000000000000000000000000000f2
:104ac40000000000000000000000000000000000e2
:104ad40000000000000000000000000000000000d2
:104ae40000000000000000000000000000000000c2
:104af40000000000000000000000000000000000b2
:104b040000000000000000000000000000000000a1
:104b14000a7f0000ffff0000eac00000c0e50000bb
:104b2400ffff0000ff050000000000000a1f000056
:104b3400ffff0000eac00000c2c70000efff000052
:104b4400ff7f00000a00000080fc0000feff000060
:104b54003f390000383f0000bfff0000fec00000e6
:104b640080000000a0c10000c3c70000efff0000e8
:104b7400fe7c000028000000005d0000ffff000034
:104b8400ff00000000000000000000000000000022
:104b94000000000000000000000000000000000011
:104ba4000000000000000000000000000000000001
:104bb40000000000000000000000000000000000f1
:104bc40000000000000000000000000000000000e1
:104bd40000000000000000000000000000000000d1
:104be40000000000000000000000000000000000c1
:104bf40000000000000000000000000000000000b1
:104c040000000000000000000000000000000000a0
:104c1400000000000001000001010000010100008b
:104c24000000000000000000000000000000000080
:104c3400000000000001000001010000000100006c
:104c4400000000000000000001010000010100005c
:104c5400000000000000000000010000010100004d
:104c6400000000000001000001010000010100003b
:104c7400000000000000000000010000010100002d
:104c8400010000000000000000000000000000001f
:104c94000000000000000000000000000000000010
:104ca4000000000000000000000000000000000000
:104cb40000000000000000000000000000000000f0
:104cc40000000000000000000000000000000000e0
:104cd40000000000000000000000000000000000d0
:104ce40000000000000000000000000000000000c0
:104cf40000000000000000000000000000000000b0
:104d0400000000000000000000000000000000009f
:104d1400808000008080000080000000000000000f
:104d240000000000808000008000000000000000ff
:104d340080800000808000008080000080000000ef
:104d440080000000000000000000000080800000df
:104d540080800000808000008000000000000000cf
:104d640080800000808000008000000000000000bf
:104d740080800000808000008000000000000000af
:104d8400808000008000000000000000808000009f
:104d9400808000008000000000000000000000008f
:104da40000000000000000000000000000000000ff
:104db40000000000000000000000000000000000ef
:104dc40000000000000000000000000000000000df
:104dd40000000000000000000000000000000000cf
:104de40000000000000000000000000000000000bf
:104df40000000000000000000000000000000000af
:104e04000000000000000000000400003e7f0000dd
:104e1400fff70000e3c3000083050000000000006a
:104e2400005d0000ffff0000ff0000000000000024
:104e340082ff0000ffff0000ebc30000ebff000057
:104e4400ff7e00002800000000040000ffff0000b7
:104e5400fff70000e3e30000a300000000000000ef
:104e6400aaff0000ffff0000befc0000e8c0000035
:104e7400aaff0000ffff0000aa0000000045000098
:104e8400ffff0000ff45000000000000aaff000033
:104e9400ffff0000aa000000000000000000000066
:104ea40000000000000000000000000000000000fe
:104eb40000000000000000000000000000000000ee
:104ec40000000000000000000000000000000000de
:104ed40000000000000000000000000000000000ce
:104ee40000000000000000000000000000000000be
:104ef40000000000000000000000000000000000ae
:104f04000000000000000000000000002870000005
:104f1400707100007b7f00003f1f00000a0000004a
:104f2400005d00007f7f00007f00000000000000a3
:104f3400027f00007f7f00002a0700002f7f00000f
:104f44007e7c000060000000000400007f7f000001
:104f54007f7400007070000070000000000000000a
:104f64002a7f00007f7f0000000100000b1f00006b
:104f74003f7f00007f7f00002a0000000001000046
:104f84000f3f00003f7d0000707000007a7f00003a
:104f94003f1f00000a0000000000000000000000a5
:104fa40000000000000000000000000000000000fd
:104fb40000000000000000000000000000000000ed
:104fc40000000000000000000000000000000000dd
:104fd40000000000000000000000000000000000cd
:104fe40000000000000000000000000000000000bd
:104ff40000000000000000000000000000000000ad
:10500400000000000000000000000000000000009c
:10501400000000000000000000000000000000008c
:10502400000000000000000000000000000000007c
:10503400000000000000000000000000000000006c
:10504400000000000000000000000000000000005c
:10505400000000000000000000000000000000004c
:10506400000000000000000000000000000000003c
:10507400000000000000000000000000000000002c
:10508400000000000000000000000000000000001c
:10509400000000000000000000000000000000000c
:1050a40000000000000000000000000000000000fc
:1050b40000000000000000000000000000000000ec
:1050c40000000000000000000000000000000000dc
:1050d400dc0000003a0e0000080200007a0d000017
:1050e40000000000000000000000000000000000bc
:1050f40000000000000000000000000000000000ac
:10510400000000003eff0000ff3e00000000000021
:1051140000000000000d00000d0000000000000071
:10512400000400000703000000040000070300005f
:10513400000000000000000000000000000000006b
:1051440010fe0000fe10000010fe0000fe10000023
:10515400010f00000f010000010f00000f0100000b
:105164001c3e000022ff0000ff420000ce8c000025
:1051740003070000040f00000f04000007030000f1
:105184000000000006c60000f03c00000e02000013
:1051940000040000070300000006000006000000f1
:1051a4001e3f0000e1c10000412100003f1e00003d
:1051b400060f0000090900000b0c00001e16000079
:1051c40000000000040700000300000000000000cd
:1051d40000000000000000000000000000000000cb
:1051e40000000000f8fe00000701000000000000bd
:1051f40000000000000700000e080000000000008e
:105204000000000001070000fef80000000000009c
:1052140000000000080e000007010000000000006c
:1052240020a80000f870000070f80000a82000001a
:10523400000000000000000000000000000000006a
:105244002020000020fc0000fc20000020200000a2
:105254000000000000010000010000000000000048
:10526400000000000000000000000000000000003a
:1052740000000000203c00001c00000000000000b2
:10528400202000002020000020200000202000001a
:10529400000000000000000000000000000000000a
:1052a40000000000000000000000000000000000fa
:1052b40000000000000c00000c00000000000000d2
:1052c4000000000000c00000f03c00000f030000dc
:1052d400000c00000f0300000000000000000000ac
:1052e400feff00000101000001010000fffe0000bc
:1052f400070f000008080000080800000f0700005e
:105304000004000006ff0000ff0000000000000091
:1053140000080000080f00000f080000080000004b
:105324000203000081c10000613100001f0e000073
:105334000e0f00000908000008080000080c000017
:10534400020300000121000021210000ffde000013
:10535400040c000008080000080800000f07000003
:10536400e0f00000988c000086ff0000ff000000c1
:105374000000000000000000080f00000f080000fb
:105384003f3f00002121000021210000e1c1000075
:10539400040c000008080000080800000f070000c3
:1053a400fcfe00002321000021210000e0c00000d9
:1053b400070f000008080000080800000f0700009d
:1053c4000303000001810000e17900001f070000d1
:1053d40000000000000f00000f00000000000000ab
:1053e400deff00002121000021210000ffde00007b
:1053f400070f000008080000080800000f0700005d
:105404001e3f00002121000021210000fffe0000ba
:105414000008000008080000080c00000703000052
:105424000000000000180000180000000000000048
:10543400000000000006000006000000000000005c
:105444000000000000180000180000000000000028
:1054540000000000101e00000e000000000000000c
:1054640040e00000b01800000c060000020000003c
:105474000000000001030000060c0000080000000a
:1054840000a00000a0a00000a0a00000a000000058
:105494000000000000000000000000000000000008
:1054a40000020000060c000018b00000e0400000fc
:1054b400000800000c0600000301000000000000ca
:1054c4000203000001c10000e13100001f0e0000d2
:1054d40000000000000d00000d00000000000000ae
:1054e4000203000001c10000e13100001f0e0000b2
:1054f40000000000000d00000d000000000000008e
:10550400f8fc00008683000083860000fcf800009d
:105514000f0f000000000000000000000f0f00004b
:10552400ffff00002121000021210000ffde000018
:105534000f0f000008080000080800000f07000013
:10554400fcfe00000301000001010000030600004e
:10555400030700000c080000080800000c06000007
:1055640001ff0000ff01000001030000fefc000039
:10557400080f00000f080000080c000007030000db
:1055840001ff0000ff21000021710000030300005f
:10559400080f00000f080000080800000c0c0000b1
:1055a40001ff0000ff21000021710000030300003f
:1055b400080f00000f0800000000000000000000b9
:1055c400fcfe00000301000041410000c3c60000ce
:1055d400030700000c08000008080000070f000083
:1055e400ffff00002020000020200000ffff00003b
:1055f4000f0f000000000000000000000f0f00006b
:105604000001000001ff0000ff0100000100000094
:1056140000080000080f00000f0800000800000048
:10562400000000000000000001ff0000ff01000076
:10563400060e000008080000080f00000700000024
:1056440001ff0000ff700000d88c00000703000079
:10565400080f00000f000000000100000f0e000002
:1056640001ff0000ff010000000000000000000036
:10567400080f00000f080000080800000c0c0000d0
:10568400ffff00000c780000780c0000ffff000012
:105694000f0f000000000000000000000f0f0000ca
:1056a400ffff00001c38000070e00000ffff000056
:1056b4000f0f000000000000000000000f0f0000aa
:1056c400feff00000101000001010000fffe0000d8
:1056d400070f000008080000080800000f0700007a
:1056e40001ff0000ff210000212100003f1e0000f7
:1056f400080f00000f080000000000000000000078
:10570400feff00000101000001010000fffe000097
:10571400070f0000080e00001c3800002f070000cf
:1057240001ff0000ff21000021610000ff9e000036
:10573400080f00000f080000000000000f0f000019
:105744000e1f00003121000021610000c786000007
:10575400060e000008080000080800000f070000fb
:105764000303000001ff0000ff0100000303000029
:1057740000000000080f00000f08000000000000f7
:10578400ffff00000000000000000000ffff000019
:10579400070f000008080000080800000f070000b9
:1057a400ffff00000000000000000000ffff0000f9
:1057b40001030000060c00000c06000003010000b9
:1057c400ffff000000e00000e0000000ffff000019
:1057d400010f00000e030000030e00000f01000083
:1057e400070f000098f00000f09800000f07000079
:1057f4000e0f000001000000000100000f0e000069
:105804000f1f000030e00000e03000001f0f000018
:1058140000000000080f00000f0800000000000056
:1058240003830000c1610000311900000f0700006c
:105834000f0f000008080000080800000c0c00000e
:1058440000000000ffff0000010100000000000054
:10585400000000000f0f0000080800000000000016
:1058640055aa000055aa000055aa000055aa000038
:1058740055aa000055aa000055aa000055aa000028
:105884000000000001010000ffff00000000000014
:1058940000000000080800000f0f000000000000d6
:1058a400080c000006030000030600000c080000ba
:1058b40000000000000000000000000000000000e4
:1058c40000000000000000000000000000000000d4
:1058d4001010000010100000101000001010000044
:1058e40000000000080f0000070000000000000096
:1058f40000000000000000000000000000000000a4
:10590400009000009090000090f00000e000000083
:10591400070f000008080000080700000f08000037
:1059240001ff0000ff10000010300000e0c0000084
:10593400080f000007080000080800000f07000017
:10594400e0f00000101000001010000030200000f3
:10595400070f000008080000080800000c040000fd
:10596400c0e000003010000011ff0000ff00000044
:10597400070f000008080000080700000f080000d7
:10598400e0f000009090000090900000f0e0000033
:10599400070f000008080000080800000c040000bd
:1059a40000100000feff00001111000003020000bf
:1059b400000800000f0f00000800000000000000b5
:1059c400e0f000001010000010e00000f0100000f3
:1059d400276f000048480000487f00003f00000097
:1059e40001ff0000ff20000010100000f0e00000a4
:1059f400080f00000f000000000000000f0f00005f
:105a04000010000010f60000f60000000000000086
:105a140000080000080f00000f0800000800000044
:105a24000000000010100000f6f600000000000066
:105a340030600000404000007f3f00000000000094
:105a440001ff0000ffc00000c06000003010000033
:105a5400080f00000f000000010300000e0c0000fe
:105a64000001000001ff0000ff0000000000000032
:105a740000080000080f00000f08000008000000e4
:105a8400f0f0000030e00000e0300000f0e0000042
:105a94000f0f000000070000070000000f0f0000b8
:105aa40010f00000e010000010100000f0e0000012
:105ab400000f00000f000000000000000f0f0000a6
:105ac400e0f000001010000010100000f0e00000f2
:105ad400070f000008080000080800000f07000076
:105ae40010f00000e010000010100000f0e00000d2
:105af400407f00007f480000080800000f070000f6
:105b0400e0f000001010000010e00000f0100000b1
:105b1400070f000008080000487f00007f400000d5
:105b240010f00000e0100000101000003020000011
:105b3400000f00000f000000000000000000000043
:105b440060f00000909000009010000030200000f1
:105b5400040c000008080000090900000f060000fa
:105b640010100000feff00001010000000000000f4
:105b740000000000070f0000080c000004000000f3
:105b8400f0f000000000000000f00000f000000051
:105b9400070f000008080000080700000f080000b5
:105ba400f0f000000000000000000000f0f0000031
:105bb40001030000060c00000c06000003010000b5
:105bc400f0f000000080000080000000f0f0000011
:105bd400070f00000c070000070c00000f0700006f
:105be4001030000060c00000c060000030100000f1
:105bf400080c000006030000030600000c08000067
:105c0400f0f000000000000000000000f0f00000d0
:105c1400474f000048480000486800003f1f00004c
:105c24003030000010900000d070000030100000f0
:105c34000c0e00000b090000080800000c0c00000a
:105c4400000000000000000000000000005f0000f1
:105c5400000000000007000000070000001400001e
:105c64007f1400007f140000242a00007f2a000013
:105c7400122300001308000064620000364900008b
:105c84005522000050000000050300000000000041
:105c9400001c00002241000000000000412200001e
:105ca4001c000000082a00001c2a0000080800004c
:105cb400083e00000808000000500000300000000a
:105cc4000008000008080000080800000030000078
:105cd4003000000000200000100800000402000052
:105ce4003e510000494500003e000000427f000094
:105cf40040000000426100005149000046210000bc
:105d0400414500004b31000018140000127f0000d0
:105d14001027000045450000453900003c4a0000ba
:105d2400494900003001000071090000050300002a
:105d34003649000049490000360600004949000080
:105d4400291e00000036000036000000000000009c
:105d54005636000000000000000800001422000075
:105d64004114000014140000141400004122000027
:105d740014080000000200000151000009060000a0
:105d840032490000794100003e7e000011110000fc
:105d9400117e00007f49000049490000363e0000a2
:105da40041410000412200007f41000041220000e7
:105db4001c7f000049490000494100007f090000a0
:105dc40009010000013e0000414100005132000081
:105dd4007f080000080800007f000000417f0000e9
:105de4004100000020400000413f0000017f00000e
:105df40008140000224100007f40000040400000e1
:105e0400407f000002040000027f00007f040000c5
:105e1400081000007f3e000041410000413e0000a8
:105e24007f09000009090000063e000041510000fe
:105e3400215e00007f090000192900004646000089
:105e44004949000049310000010100007f010000c0
:105e5400013f000040400000403f00001f200000c0
:105e6400402000001f7f000020180000207f000059
:105e740063140000081400006303000004780000a9
:105e84000403000061510000494500004300000084
:105e9400007f0000414100000204000008100000df
:105ea40020410000417f00000000000004020000c7
:105eb4000102000004400000404000004040000097
:105ec40000010000020400000020000054540000ff
:105ed400547800007f480000444400003838000033
:105ee40044440000442000003844000044480000ba
:105ef4007f3800005454000054180000087e00004d
:105f0400090100000208000014540000543c000081
:105f14007f0800000404000078000000447d0000b5
:105f24004000000020400000443d0000000000004c
:105f34007f10000028440000004100007f40000062
:105f4400007c000004180000047800007c080000b5
:105f54000404000078380000444400004438000081
:105f64007c1400001414000008080000141400003d
:105f7400187c00007c0800000404000008480000ad
:105f84005454000054200000043f0000444000002a
:105f9400203c000040400000207c00001c20000049
:105fa400402000001c3c000040300000403c000049
:105fb4004428000010280000440c00005050000049
:105fc400503c000044640000544c000044000000b5
:105fd4000836000041000000000000007f000000bf
:105fe400000000004136000008000000080800001e
:105ff4002a1c0000080800001c2a000008080000f1
:10600400000000000000000000000000000000008c
:10601400000000000000000000000000000000007c
:10602400000000000000000000000000000000006c
:10603400000000000000000000000000000000005c
:020000040000fa
:106444000200fa00004f78001e4078000004e000cb
:1064540004003200101780000050a00010178800bc
:1064640003003700101780000050a10010178800a7
:106474000080fa00000006000200fa00004f7800d5
:106484001e4078000004e000040032001017800071
:106494000040a00010178800030037001017800088
:1064a4000040a100101788000080fa0000000600d8
:1064b4000200fa00004f78001e4078000004e0005b
:1064c40004003200101780000010a000101788008c
:1064d40003003700101780000010a1001017880077
:1064e4000080fa00000006000200fa00004f780065
:1064f4001e4078000004e000040032001017800001
:106504000000a00010178800030037001017800057
:106514000000a100101788000080fa0000000600a7
:106524000200fa00004f78001e4078000004e000ea
:1065340004003200501680000050a000501688005d
:1065440003003700501680000050a1005016880048
:106554000080fa00000006000200fa00004f7800f4
:106564001e4078000004e000040032005016800051
:106574000040a00050168800030037005016800029
:106584000040a100501688000080fa0000000600b8
:106594000000fa00dea2a900de82a900de22a90022
:1065a400de02a900a8a2a800c6a2a900a882a80089
:1065b400c682a900a802a800c602a900a822a800b1
:1065c400c622a900a842a800c642a900a862a80041
:1065d400c662a900d202a900d222a900d242a9000f
:1065e400d262a9000080fa00000006000200fa004e
:1065f400004f78001e4078000004e00008003a00d4
:10660400d202a900d222a900d242a900d262a900d2
:10661400c662a900c642a900c622a900c602a900f2
:106624001e407800e14f500008003a00d202a80052
:10663400d222a800d242a800d262a800c662a80052
:10664400c642a800c622a800c602a8000080fa001c
:10665400000006000400fa0020479800ae409000b5
:10666400014f7800b116800000ff2f000080600009
:10667400b01688005116800000ff2f0000806000d3
:10668400501688009e4078006fc060001047980044
:106694001e4090008080fb005016800001007000b6
:1066a400501688001e80fb004400de00004f780076
:1066b4009e80fb00b016800001007000b0168800b8
:1066c4000080fa00000006000200fa00a016800014
:1066d400004f78009e407800400020000008dd0054
:1066e400004f780040168000104798001e4090002c
:1066f4006f406000104798001e4090001e4040000c
:10670400104798001e4090000080fa000000060028
:106714000000fa0010c0b30057ff07000040eb0070
:1067240055ff07000080fa00000006000200fa008e
:10673400004f78000040eb006bff07000040eb00c7
:106744005bff07001e407800c2ff0700f0ff070050
:106754000080fa00000006000400fa001007980008
:106764000000eb00000f7800010037001e0fe80066
:106774001e0090009e007800808f5000fbff3900bf
:106784000080fa00000006000200fa000040eb005e
:1067940055ff070010c0b30045ff070010c0b30049
:1067a40092ff070010c0b30033ff0700c6ff0700c5
:1067b400004f78000040eb002fff07000200370075
:1067c400c1ff0700004f78001e4078000004e0007d
:1067d400fbff35000080fa00000006000200fa000a
:1067e400004f7800f0c3b3009e40780080cf500083
:1067f40008003e0010c0b300320007001e407800bd
:106804000064a000c9ff070010c0b30022e8b7006d
:106814000a0037001e4078000004e000070035003d
:106824000040eb002700070000ccb3001e404000ee
:106834000064a000bdff07002268ef001e4178003d
:1068440001822000824878000080fa0000000600df
:106854000200fa00004f78001e407800e74f500015
:1068640006003e0080cbb3001e407000afff07005f
:106874001e41780011822000824878000080fa00ce
:10688400000006000200fa00004f7800114798004b
:106894001e407800d1ff07001e409000ecff070067
:1068a4000080fa00000006000200fa00004f7800a1
:1068b40000ccb3001e4070009cff07000080fa006b
:1068c400000006000200fa00004f78000040eb00d0
:1068d40005ff07001e4078000004e0000a003a00ab
:1068e4000040eb00f2fe070010c0b3001aff0700df
:1068f4000040eb000aff0700f0c3b3008bff070062
:106904002268ef000a0037000040eb00e8fe0700b1
:106914000040eb0010ff070010c0b30000ff0700a9
:10692400f0c3b30081ff070010c0b30022e8b70032
:106934000080fa00000006000200fa0010c0b30054
:106944002aff070010c0b300e7fe070010c0b30021
:10695400d7fe07006eff070010c0b300c6fe070095
:1069640059ff0700004f78000040eb00c2fe07000b
:106974000040eb001dff07000040eb00dafe0700bb
:106984000040eb00cafe07001e4078000080fa00b9
:10699400000006000000fa000040eb002dff070095
:1069a4000040eb00d0fe07000040eb00c0fe0700f3
:1069b4000040eb00b0fe07000040eb00e6fe0700dd
:1069c4000040eb00d6fe070010c0b3009cfe070099
:1069d400a000200060ff07000040eb0098fe0700c5
:1069e400a00020005cff070010c0b30094fe070065
:1069f40010c0b300b3ff0700e0c3b3004bff0700b0
:106a040000ccb30049ff070080cbb30047ff070069
:106a140000c4b30045ff0700f0c3b30043ff070001
:106a24000040eb00a7ff0700e0c3b3003fff0700ef
:106a340000ccb3003dff070080cbb3003bff070051
:106a440000c4b30039ff0700f0c3b30037ff0700e9
:106a54000080fa00000006000200fa00004f7800ef
:106a640010c0b300a0fe07000040eb0090fe07003a
:106a74001e407800f7fe070025ff07000080fa009b
:106a8400000006000200fa000040eb0010479800e6
:106a94001d0037009e4090000040eb0079ff070086
:106aa4000040eb00004f7800030037000040eb008b
:106ab400e9ff07001e4fe800f0c3b3009e407800d2
:106ac40080cf5000f9ff36009e40900000c4b30010
:106ad4006cff07000040eb00004f78000300370014
:106ae4000040eb00dcff07001e4fe800f0c3b300da
:106af4009e40780080cf5000f9ff36001e40900081
:106b04000040e800104798001e409000e74f5000f6
:106b1400e0ff36000080fa00000006000200fa00e0
:106b24000040eb00104798001d0037009e40900085
:106b34000040eb0053ff07000040eb00004f7800db
:106b44000300370000c0eb00c3ff07001e4fe8003e
:106b5400f0c3b3009e40780080cf5000f9ff3600a8
:106b64009e40900000c4b30046ff07000040eb00c5
:106b7400004f78000300370000c0eb00b6ff0700a9
:106b84001e4fe800f0c3b3009e40780080cf500051
:106b9400f9ff36001e4090000040e80010479800be
:106ba4001e409000e74f5000e0ff36000080fa00de
:106bb400000006000400fa00100798000040eb00f3
:106bc400104798002c0037009e4090000040eb00d6
:106bd4002cff07000040eb00004f78000a0037004c
:106be4001e4090000080fb00c700dd001e80fb00fb
:106bf400008040009e00900000804000104078001b
:106c040095ff07001e4fe800f0c3b3009e407800d4
:106c140080cf5000f2ff36009e40900000c4b300c5
:106c240018ff07000040eb00004f78000b0037000e
:106c34001e4090000080fb00c700dd001e80fb00aa
:106c4400008040000004b0009e00900000804000de
:106c54001040780080ff07001e4fe800f0c3b30027
:106c64009e40780080cf5000f1ff36001e40900017
:106c74000040e800104798001e409000e74f500085
:106c8400d1ff36000080fa00000006000400fa007c
:106c940020479800314798000040eb00004f7800ef
:106ca4003e4090000080fb004300de00004078007e
:106cb400804078002e409000f2fe07001eff07007f
:106cc400004f78003e4090000080fb004300de004f
:106cd40000407800804078002e409000e9fe0700d4
:106ce4003e4090000080fb0067006000110020001f
:106cf4000008dd00804078001e40780000c070006d
:106d040055ff07000080fa00000006000400fa00a6
:106d140020479800314798000040eb00004f78006e
:106d24003e4090000080fb004300de0000407800fd
:106d3400804078002e409000d2fe0700fefe07003f
:106d4400004f78003e4090000080fb004300de00ce
:106d540000407800804078002e409000c9fe070073
:106d64003e4090000080fb0067006000110020009e
:106d74000008dd000040780080c0ea001e40780072
:106d840000c0600034ff07000080fa000000060025
:106d94000c00fa00004f9800114f9800224f980001
:106da4000000eb00000f78000000eb0010079800d3
:106db4000000eb00200798009e4890000e489000c9
:106dc40000c05000604798002e4890000080fb00ef
:106dd400100798002e4890008080fb00e0ff2f00f1
:106de4000088b90000007800630f40006400370099
:106df4001e009000804078001e48900080c0400033
:106e04002e009000004178000e48900000404100a0
:106e14009eff07001e009000004078009e489000ee
:106e240080c050002e009000004178000e48900071
:106e34000040410095ff07001e009000804078004c
:106e44001e48900080c040002e0090000040780052
:106e54000e499000004051008cff07001e00900076
:106e6400004078009e48900080c050002e009000a2
:106e7400004078000e4990000040510083ff070055
:106e84002e009000804078001e48900080c0400092
:106e94001e009000004178001e489000004141000f
:106ea4006e4090000040510078ff07002e009000d3
:106eb400004078009e48900080c050001e00900062
:106ec400004178001e489000004141006e4090004f
:106ed400004051006dff07002e00900080407800b4
:106ee4001e48900080c040001e00900000407800c2
:106ef4001e499000004151006e4090000040510036
:106f040062ff07002e009000004078009e48900029
:106f140080c050001e009000004078001e49900080
:106f2400004151006e4090000040510057ff07009f
:106f34001e0078000000e00005003d002e009000d7
:106f44004200dd00660040001e0f400009003700cb
:106f5400ae0090001e009000008050004200dd0052
:106f64006a0040001e0f40001e0090000000e9006f
:106f7400100798002e0090000000e80020079800f9
:106f8400ae0090001e009000808f500098ff3400e7
:106f94000080fa00000006000600fa00204798006e
:106fa4003147980042479800534798000040eb004f
:106fb400004f78000040eb00004f780009003700d4
:106fc4002e4090001e404000be4090002fff07005e
:106fd4002e4090001e404000de4090002bff070032
:106fe4001e4fe8009e80fb004e4090000081fb0095
:106ff4002e4090000080fb00000051000000e800db
:10700400808f5000eeff35000040eb00004f780009
:107014000b0037003e4090001e4040008040780046
:107024002e40900019ff07003e4090001e40400093
:10703400804078004e40900014ff07001e4fe80087
:107044009e80fb005e4090000081fb003e4090006b
:107054000080fb00000051000000e800808f500019
:10706400ecff35000080fa00000006000400fa007e
:107074002047980020c8bf000080fb00e5004000c6
:10708400f0072000808f50000800340021c8bf00a2
:107094000040e80021e8b70021c8bf00e74f5000d6
:1070a400010036002168ef002068ef001182200003
:1070b4009140780020c8bf00f2fd07000040eb00bb
:1070c400004f7800130037002e4090000000fb00b2
